{
  "_format": "hh-sol-artifact-1",
  "contractName": "DestinationChainSwapExecutable",
  "sourceName": "contracts/test/gmp/DestinationChainSwapExecutable.sol",
  "abi": [
    {
      "inputs": [
        {
          "internalType": "address",
          "name": "gatewayAddress",
          "type": "address"
        },
        {
          "internalType": "address",
          "name": "swapperAddress",
          "type": "address"
        }
      ],
      "stateMutability": "nonpayable",
      "type": "constructor"
    },
    {
      "inputs": [],
      "name": "NotApprovedByGateway",
      "type": "error"
    },
    {
      "inputs": [
        {
          "internalType": "bytes32",
          "name": "commandId",
          "type": "bytes32"
        },
        {
          "internalType": "string",
          "name": "sourceChain",
          "type": "string"
        },
        {
          "internalType": "string",
          "name": "sourceAddress",
          "type": "string"
        },
        {
          "internalType": "bytes",
          "name": "payload",
          "type": "bytes"
        }
      ],
      "name": "execute",
      "outputs": [],
      "stateMutability": "nonpayable",
      "type": "function"
    },
    {
      "inputs": [
        {
          "internalType": "bytes32",
          "name": "commandId",
          "type": "bytes32"
        },
        {
          "internalType": "string",
          "name": "sourceChain",
          "type": "string"
        },
        {
          "internalType": "string",
          "name": "sourceAddress",
          "type": "string"
        },
        {
          "internalType": "bytes",
          "name": "payload",
          "type": "bytes"
        },
        {
          "internalType": "string",
          "name": "tokenSymbol",
          "type": "string"
        },
        {
          "internalType": "uint256",
          "name": "amount",
          "type": "uint256"
        }
      ],
      "name": "executeWithToken",
      "outputs": [],
      "stateMutability": "nonpayable",
      "type": "function"
    },
    {
      "inputs": [],
      "name": "gateway",
      "outputs": [
        {
          "internalType": "contract IAxelarGateway",
          "name": "",
          "type": "address"
        }
      ],
      "stateMutability": "view",
      "type": "function"
    }
  ],
  "bytecode": "0x608060405234801561001057600080fd5b50604051610ccf380380610ccf83398101604081905261002f9161007c565b600080546001600160a01b039384166001600160a01b031991821617909155600180549290931691161790556100af565b80516001600160a01b038116811461007757600080fd5b919050565b6000806040838503121561008f57600080fd5b61009883610060565b91506100a660208401610060565b90509250929050565b610c11806100be6000396000f3fe608060405234801561001057600080fd5b50600436106100415760003560e01c8063116191b6146100465780631a98b2e014610075578063491606581461008a575b600080fd5b600054610059906001600160a01b031681565b6040516001600160a01b03909116815260200160405180910390f35b61008861008336600461074e565b61009d565b005b610088610098366004610828565b610238565b600085856040516100af9291906108cc565b6040519081900381206000547f1876eed90000000000000000000000000000000000000000000000000000000083529092506001600160a01b031690631876eed99061010f908e908e908e908e908e9089908d908d908d90600401610905565b602060405180830381600087803b15801561012957600080fd5b505af115801561013d573d6000803e3d6000fd5b505050506040513d601f19601f820116820180604052508101906101619190610964565b61017e57604051631403112d60e21b815260040160405180910390fd5b61022b8a8a8080601f01602080910402602001604051908101604052809392919081815260200183838082843760009201919091525050604080516020601f8e018190048102820181019092528c815292508c91508b908190840183828082843760009201919091525050604080516020601f8b018190048102820181019092528981528c93508b9250908a908a90819084018382808284376000920191909152508a9250610394915050565b5050505050505050505050565b6000828260405161024a9291906108cc565b6040519081900381206000547f5f6970c30000000000000000000000000000000000000000000000000000000083529092506001600160a01b031690635f6970c3906102a4908b908b908b908b908b90899060040161098d565b602060405180830381600087803b1580156102be57600080fd5b505af11580156102d2573d6000803e3d6000fd5b505050506040513d601f19601f820116820180604052508101906102f69190610964565b61031357604051631403112d60e21b815260040160405180910390fd5b61038a87878080601f01602080910402602001604051908101604052809392919081815260200183838082843760009201919091525050604080516020601f8b0181900481028201810190925289815292508991508890819084018382808284376000920191909152508892508791506106ff9050565b5050505050505050565b6000806103a385870187610a8a565b600080546040516349ad89fb60e11b8152939550919350916001600160a01b039091169063935b13f6906103db908890600401610b3b565b60206040518083038186803b1580156103f357600080fd5b505afa158015610407573d6000803e3d6000fd5b505050506040513d601f19601f8201168201806040525081019061042b9190610b4e565b600080546040516349ad89fb60e11b815292935090916001600160a01b039091169063935b13f690610461908790600401610b3b565b60206040518083038186803b15801561047957600080fd5b505afa15801561048d573d6000803e3d6000fd5b505050506040513d601f19601f820116820180604052508101906104b19190610b4e565b60015460405163095ea7b360e01b81526001600160a01b0391821660048201526024810188905291925083169063095ea7b390604401602060405180830381600087803b15801561050157600080fd5b505af1158015610515573d6000803e3d6000fd5b505050506040513d601f19601f820116820180604052508101906105399190610964565b506001546040517f6e81221c0000000000000000000000000000000000000000000000000000000081526001600160a01b0384811660048301528381166024830152604482018890523060648301526000921690636e81221c90608401602060405180830381600087803b1580156105b057600080fd5b505af11580156105c4573d6000803e3d6000fd5b505050506040513d601f19601f820116820180604052508101906105e89190610b77565b60005460405163095ea7b360e01b81526001600160a01b0391821660048201526024810183905291925083169063095ea7b390604401602060405180830381600087803b15801561063857600080fd5b505af115801561064c573d6000803e3d6000fd5b505050506040513d601f19601f820116820180604052508101906106709190610964565b506000546040517f26ef699d0000000000000000000000000000000000000000000000000000000081526001600160a01b03909116906326ef699d906106c0908e9088908a908790600401610b90565b600060405180830381600087803b1580156106da57600080fd5b505af11580156106ee573d6000803e3d6000fd5b505050505050505050505050505050565b50505050565b60008083601f84011261071757600080fd5b50813567ffffffffffffffff81111561072f57600080fd5b60208301915083602082850101111561074757600080fd5b9250929050565b60008060008060008060008060008060c08b8d03121561076d57600080fd5b8a35995060208b013567ffffffffffffffff8082111561078c57600080fd5b6107988e838f01610705565b909b50995060408d01359150808211156107b157600080fd5b6107bd8e838f01610705565b909950975060608d01359150808211156107d657600080fd5b6107e28e838f01610705565b909750955060808d01359150808211156107fb57600080fd5b506108088d828e01610705565b9150809450508092505060a08b013590509295989b9194979a5092959850565b60008060008060008060006080888a03121561084357600080fd5b87359650602088013567ffffffffffffffff8082111561086257600080fd5b61086e8b838c01610705565b909850965060408a013591508082111561088757600080fd5b6108938b838c01610705565b909650945060608a01359150808211156108ac57600080fd5b506108b98a828b01610705565b989b979a50959850939692959293505050565b8183823760009101908152919050565b81835281816020850137506000828201602090810191909152601f909101601f19169091010190565b89815260c06020820152600061091f60c083018a8c6108dc565b828103604084015261093281898b6108dc565b9050866060840152828103608084015261094d8186886108dc565b9150508260a08301529a9950505050505050505050565b60006020828403121561097657600080fd5b8151801515811461098657600080fd5b9392505050565b8681526080602082015260006109a76080830187896108dc565b82810360408401526109ba8186886108dc565b915050826060830152979650505050505050565b7f4e487b7100000000000000000000000000000000000000000000000000000000600052604160045260246000fd5b600082601f830112610a0e57600080fd5b813567ffffffffffffffff80821115610a2957610a296109ce565b604051601f8301601f19908116603f01168101908282118183101715610a5157610a516109ce565b81604052838152866020858801011115610a6a57600080fd5b836020870160208301376000602085830101528094505050505092915050565b60008060408385031215610a9d57600080fd5b823567ffffffffffffffff80821115610ab557600080fd5b610ac1868387016109fd565b93506020850135915080821115610ad757600080fd5b50610ae4858286016109fd565b9150509250929050565b6000815180845260005b81811015610b1457602081850181015186830182015201610af8565b81811115610b26576000602083870101525b50601f01601f19169290920160200192915050565b6020815260006109866020830184610aee565b600060208284031215610b6057600080fd5b81516001600160a01b038116811461098657600080fd5b600060208284031215610b8957600080fd5b5051919050565b608081526000610ba36080830187610aee565b8281036020840152610bb58187610aee565b90508281036040840152610bc98186610aee565b9150508260608301529594505050505056fea2646970667358221220996855b072860ef04205a0ba25503f7c0c8c355476f9a71885163b404c30227164736f6c63430008090033",
  "linkReferences": {},
  "deployedLinkReferences": {}
}