{
  "_format": "hh-sol-artifact-1",
  "contractName": "AxelarDepositService",
  "sourceName": "contracts/deposit-service/AxelarDepositService.sol",
  "abi": [
    {
      "inputs": [
        {
          "internalType": "address",
          "name": "gateway_",
          "type": "address"
        },
        {
          "internalType": "string",
          "name": "wrappedSymbol_",
          "type": "string"
        }
      ],
      "stateMutability": "nonpayable",
      "type": "constructor"
    },
    {
      "inputs": [],
      "name": "InvalidAddress",
      "type": "error"
    },
    {
      "inputs": [],
      "name": "InvalidCodeHash",
      "type": "error"
    },
    {
      "inputs": [],
      "name": "InvalidImplementation",
      "type": "error"
    },
    {
      "inputs": [],
      "name": "InvalidOwner",
      "type": "error"
    },
    {
      "inputs": [],
      "name": "InvalidStringLength",
      "type": "error"
    },
    {
      "inputs": [],
      "name": "InvalidSymbol",
      "type": "error"
    },
    {
      "inputs": [],
      "name": "NativeTransferFailed",
      "type": "error"
    },
    {
      "inputs": [],
      "name": "NotOwner",
      "type": "error"
    },
    {
      "inputs": [],
      "name": "NotProxy",
      "type": "error"
    },
    {
      "inputs": [],
      "name": "NothingDeposited",
      "type": "error"
    },
    {
      "inputs": [],
      "name": "SetupFailed",
      "type": "error"
    },
    {
      "inputs": [],
      "name": "TokenApproveFailed",
      "type": "error"
    },
    {
      "inputs": [],
      "name": "TokenTransferFailed",
      "type": "error"
    },
    {
      "inputs": [],
      "name": "UnwrapFailed",
      "type": "error"
    },
    {
      "inputs": [],
      "name": "WrapFailed",
      "type": "error"
    },
    {
      "anonymous": false,
      "inputs": [
        {
          "indexed": true,
          "internalType": "address",
          "name": "newOwner",
          "type": "address"
        }
      ],
      "name": "OwnershipTransferred",
      "type": "event"
    },
    {
      "anonymous": false,
      "inputs": [
        {
          "indexed": true,
          "internalType": "address",
          "name": "newImplementation",
          "type": "address"
        }
      ],
      "name": "Upgraded",
      "type": "event"
    },
    {
      "inputs": [
        {
          "internalType": "bytes32",
          "name": "salt",
          "type": "bytes32"
        },
        {
          "internalType": "address",
          "name": "refundAddress",
          "type": "address"
        },
        {
          "internalType": "string",
          "name": "destinationChain",
          "type": "string"
        },
        {
          "internalType": "string",
          "name": "destinationAddress",
          "type": "string"
        }
      ],
      "name": "addressForNativeDeposit",
      "outputs": [
        {
          "internalType": "address",
          "name": "",
          "type": "address"
        }
      ],
      "stateMutability": "view",
      "type": "function"
    },
    {
      "inputs": [
        {
          "internalType": "bytes32",
          "name": "salt",
          "type": "bytes32"
        },
        {
          "internalType": "address",
          "name": "refundAddress",
          "type": "address"
        },
        {
          "internalType": "address",
          "name": "recipient",
          "type": "address"
        }
      ],
      "name": "addressForNativeUnwrap",
      "outputs": [
        {
          "internalType": "address",
          "name": "",
          "type": "address"
        }
      ],
      "stateMutability": "view",
      "type": "function"
    },
    {
      "inputs": [
        {
          "internalType": "bytes32",
          "name": "salt",
          "type": "bytes32"
        },
        {
          "internalType": "address",
          "name": "refundAddress",
          "type": "address"
        },
        {
          "internalType": "string",
          "name": "destinationChain",
          "type": "string"
        },
        {
          "internalType": "string",
          "name": "destinationAddress",
          "type": "string"
        },
        {
          "internalType": "string",
          "name": "tokenSymbol",
          "type": "string"
        }
      ],
      "name": "addressForTokenDeposit",
      "outputs": [
        {
          "internalType": "address",
          "name": "",
          "type": "address"
        }
      ],
      "stateMutability": "view",
      "type": "function"
    },
    {
      "inputs": [],
      "name": "contractId",
      "outputs": [
        {
          "internalType": "bytes32",
          "name": "",
          "type": "bytes32"
        }
      ],
      "stateMutability": "pure",
      "type": "function"
    },
    {
      "inputs": [],
      "name": "gateway",
      "outputs": [
        {
          "internalType": "address",
          "name": "",
          "type": "address"
        }
      ],
      "stateMutability": "view",
      "type": "function"
    },
    {
      "inputs": [],
      "name": "implementation",
      "outputs": [
        {
          "internalType": "address",
          "name": "implementation_",
          "type": "address"
        }
      ],
      "stateMutability": "view",
      "type": "function"
    },
    {
      "inputs": [
        {
          "internalType": "bytes32",
          "name": "salt",
          "type": "bytes32"
        },
        {
          "internalType": "address",
          "name": "refundAddress",
          "type": "address"
        },
        {
          "internalType": "address payable",
          "name": "recipient",
          "type": "address"
        }
      ],
      "name": "nativeUnwrap",
      "outputs": [],
      "stateMutability": "nonpayable",
      "type": "function"
    },
    {
      "inputs": [],
      "name": "owner",
      "outputs": [
        {
          "internalType": "address",
          "name": "owner_",
          "type": "address"
        }
      ],
      "stateMutability": "view",
      "type": "function"
    },
    {
      "inputs": [],
      "name": "receiverImplementation",
      "outputs": [
        {
          "internalType": "address",
          "name": "",
          "type": "address"
        }
      ],
      "stateMutability": "view",
      "type": "function"
    },
    {
      "inputs": [
        {
          "internalType": "bytes32",
          "name": "salt",
          "type": "bytes32"
        },
        {
          "internalType": "address",
          "name": "refundAddress",
          "type": "address"
        },
        {
          "internalType": "string",
          "name": "destinationChain",
          "type": "string"
        },
        {
          "internalType": "string",
          "name": "destinationAddress",
          "type": "string"
        },
        {
          "internalType": "address[]",
          "name": "refundTokens",
          "type": "address[]"
        }
      ],
      "name": "refundNativeDeposit",
      "outputs": [],
      "stateMutability": "nonpayable",
      "type": "function"
    },
    {
      "inputs": [
        {
          "internalType": "bytes32",
          "name": "salt",
          "type": "bytes32"
        },
        {
          "internalType": "address",
          "name": "refundAddress",
          "type": "address"
        },
        {
          "internalType": "address payable",
          "name": "recipient",
          "type": "address"
        },
        {
          "internalType": "address[]",
          "name": "refundTokens",
          "type": "address[]"
        }
      ],
      "name": "refundNativeUnwrap",
      "outputs": [],
      "stateMutability": "nonpayable",
      "type": "function"
    },
    {
      "inputs": [],
      "name": "refundToken",
      "outputs": [
        {
          "internalType": "address",
          "name": "",
          "type": "address"
        }
      ],
      "stateMutability": "view",
      "type": "function"
    },
    {
      "inputs": [
        {
          "internalType": "bytes32",
          "name": "salt",
          "type": "bytes32"
        },
        {
          "internalType": "address",
          "name": "refundAddress",
          "type": "address"
        },
        {
          "internalType": "string",
          "name": "destinationChain",
          "type": "string"
        },
        {
          "internalType": "string",
          "name": "destinationAddress",
          "type": "string"
        },
        {
          "internalType": "string",
          "name": "tokenSymbol",
          "type": "string"
        },
        {
          "internalType": "address[]",
          "name": "refundTokens",
          "type": "address[]"
        }
      ],
      "name": "refundTokenDeposit",
      "outputs": [],
      "stateMutability": "nonpayable",
      "type": "function"
    },
    {
      "inputs": [
        {
          "internalType": "string",
          "name": "destinationChain",
          "type": "string"
        },
        {
          "internalType": "string",
          "name": "destinationAddress",
          "type": "string"
        }
      ],
      "name": "sendNative",
      "outputs": [],
      "stateMutability": "payable",
      "type": "function"
    },
    {
      "inputs": [
        {
          "internalType": "bytes32",
          "name": "salt",
          "type": "bytes32"
        },
        {
          "internalType": "address",
          "name": "refundAddress",
          "type": "address"
        },
        {
          "internalType": "string",
          "name": "destinationChain",
          "type": "string"
        },
        {
          "internalType": "string",
          "name": "destinationAddress",
          "type": "string"
        }
      ],
      "name": "sendNativeDeposit",
      "outputs": [],
      "stateMutability": "nonpayable",
      "type": "function"
    },
    {
      "inputs": [
        {
          "internalType": "bytes32",
          "name": "salt",
          "type": "bytes32"
        },
        {
          "internalType": "address",
          "name": "refundAddress",
          "type": "address"
        },
        {
          "internalType": "string",
          "name": "destinationChain",
          "type": "string"
        },
        {
          "internalType": "string",
          "name": "destinationAddress",
          "type": "string"
        },
        {
          "internalType": "string",
          "name": "tokenSymbol",
          "type": "string"
        }
      ],
      "name": "sendTokenDeposit",
      "outputs": [],
      "stateMutability": "nonpayable",
      "type": "function"
    },
    {
      "inputs": [
        {
          "internalType": "bytes",
          "name": "data",
          "type": "bytes"
        }
      ],
      "name": "setup",
      "outputs": [],
      "stateMutability": "nonpayable",
      "type": "function"
    },
    {
      "inputs": [
        {
          "internalType": "address",
          "name": "newOwner",
          "type": "address"
        }
      ],
      "name": "transferOwnership",
      "outputs": [],
      "stateMutability": "nonpayable",
      "type": "function"
    },
    {
      "inputs": [
        {
          "internalType": "address",
          "name": "newImplementation",
          "type": "address"
        },
        {
          "internalType": "bytes32",
          "name": "newImplementationCodeHash",
          "type": "bytes32"
        },
        {
          "internalType": "bytes",
          "name": "params",
          "type": "bytes"
        }
      ],
      "name": "upgrade",
      "outputs": [],
      "stateMutability": "nonpayable",
      "type": "function"
    },
    {
      "inputs": [],
      "name": "wrappedSymbol",
      "outputs": [
        {
          "internalType": "string",
          "name": "",
          "type": "string"
        }
      ],
      "stateMutability": "view",
      "type": "function"
    },
    {
      "inputs": [],
      "name": "wrappedToken",
      "outputs": [
        {
          "internalType": "address",
          "name": "",
          "type": "address"
        }
      ],
      "stateMutability": "view",
      "type": "function"
    }
  ],
  "bytecode": "0x60e06040523480156200001157600080fd5b5060405162003aeb38038062003aeb83398101604081905262000034916200026e565b81816001600160a01b0382166200005e5760405163e6c4247b60e01b815260040160405180910390fd5b6001600160a01b03821660808190526040516349ad89fb60e11b81526000919063935b13f690620000949085906004016200036a565b60206040518083038186803b158015620000ad57600080fd5b505afa158015620000c2573d6000803e3d6000fd5b505050506040513d601f19601f82011682018060405250810190620000e8919062000386565b6001600160a01b03161415620001115760405163010466f160e21b815260040160405180910390fd5b62000127816200017e60201b620014f01760201c565b60a0525050604051829082906200013e90620001fa565b6200014b929190620003a4565b604051809103906000f08015801562000168573d6000803e3d6000fd5b506001600160a01b031660c05250620003f29050565b805160009082901580620001935750601f8151115b15620001b257604051638dc6ac0160e01b815260040160405180910390fd5b6000620001bf82620003ca565b82516040805160ff9092169290921760208201819052925001604051602081830303815290604052620001f290620003ca565b949350505050565b6114b8806200263383390190565b80516001600160a01b03811681146200022057600080fd5b919050565b634e487b7160e01b600052604160045260246000fd5b60005b83811015620002585781810151838201526020016200023e565b8381111562000268576000848401525b50505050565b600080604083850312156200028257600080fd5b6200028d8362000208565b60208401519092506001600160401b0380821115620002ab57600080fd5b818501915085601f830112620002c057600080fd5b815181811115620002d557620002d562000225565b604051601f8201601f19908116603f0116810190838211818310171562000300576200030062000225565b816040528281528860208487010111156200031a57600080fd5b6200032d8360208301602088016200023b565b80955050505050509250929050565b60008151808452620003568160208601602086016200023b565b601f01601f19169290920160200192915050565b6020815260006200037f60208301846200033c565b9392505050565b6000602082840312156200039957600080fd5b6200037f8262000208565b6001600160a01b0383168152604060208201819052600090620001f2908301846200033c565b80516020808301519190811015620003ec576000198160200360031b1b821691505b50919050565b60805160a05160c0516121e76200044c60003960006101a00152600081816104eb015281816107aa0152610d7d015260008181610218015281816106d30152818161076901528181610b0b0152610d4001526121e76000f3fe608060405260043610620001875760003560e01c80638291286c11620000db578063a3499c731162000089578063f2fde38b1162000060578063f2fde38b1462000483578063fc13a8b114620004a8578063fee8cf4e14620004cd57600080fd5b8063a3499c731462000414578063b357691e1462000439578063cf85fb53146200045e57600080fd5b806393e4845b11620000be57806393e4845b14620003b2578063996c6cc314620003d75780639ded06df14620003ef57600080fd5b80638291286c146200033f5780638da5cb5b146200037c57600080fd5b806319030c471162000139578063439dff06116200011c578063439dff0614620002c25780635c60da1b14620002e75780635cb732be146200031d57600080fd5b806319030c4714620002785780633f99819a146200029d57600080fd5b8063116191b6116200016e578063116191b6146200020457806313e46f72146200023a57806315c4be96146200025f57600080fd5b8063112e335c146200018c578063115079db14620001df575b600080fd5b3480156200019957600080fd5b50620001c27f000000000000000000000000000000000000000000000000000000000000000081565b6040516001600160a01b0390911681526020015b60405180910390f35b348015620001ec57600080fd5b50620001c2620001fe366004620016fa565b62000527565b3480156200021157600080fd5b50620001c27f000000000000000000000000000000000000000000000000000000000000000081565b3480156200024757600080fd5b50620001c2620002593660046200178f565b62000595565b620002766200027036600462001851565b62000609565b005b3480156200028557600080fd5b5062000276620002973660046200190c565b62000837565b348015620002aa57600080fd5b5062000276620002bc3660046200178f565b620009b0565b348015620002cf57600080fd5b5062000276620002e136600462001987565b62000a47565b348015620002f457600080fd5b507f360894a13ba1a3210667c828492db98dca3e2076cc3735a920a3ca505d382bbc54620001c2565b3480156200032a57600080fd5b50600054620001c2906001600160a01b031681565b3480156200034c57600080fd5b506040517fb8e1544725348a2fe538aa3da850e3b074cd75bac06629b2beb717eaee8dd7078152602001620001d6565b3480156200038957600080fd5b507f02016836a56b71f0d02689e69e326f4f4c1b9057164ef592671cf0d37c8040c054620001c2565b348015620003bf57600080fd5b5062000276620003d1366004620019ce565b62000ad8565b348015620003e457600080fd5b50620001c262000d3c565b348015620003fc57600080fd5b50620002766200040e36600462001abe565b62000e21565b3480156200042157600080fd5b50620002766200043336600462001b04565b62000e92565b3480156200044657600080fd5b50620002766200045836600462001b5a565b62001195565b3480156200046b57600080fd5b50620002766200047d366004620016fa565b6200130e565b3480156200049057600080fd5b5062000276620004a236600462001c08565b620013a1565b348015620004b557600080fd5b50620001c2620004c736600462001987565b6200148c565b348015620004da57600080fd5b5062000518604080518082019091527f000000000000000000000000000000000000000000000000000000000000000060ff81168252602082015290565b604051620001d6919062001c90565b60006200058a8763a97a8d1660e01b88888888886040516024016200055195949392919062001cce565b60408051601f198184030181529190526020810180516001600160e01b03166001600160e01b031990931692909217909152886200157d565b979650505050505050565b6000620005fc8963b28f104b60e01b8a8a8a8a8a8a8a604051602401620005c3979695949392919062001d14565b60408051601f198184030181529190526020810180516001600160e01b03166001600160e01b0319909316929092179091528a6200157d565b9998505050505050505050565b60006200061562000d3c565b9050348062000650576040517f69b95dc900000000000000000000000000000000000000000000000000000000815260040160405180910390fd5b816001600160a01b031663d0e30db0826040518263ffffffff1660e01b81526004016000604051808303818588803b1580156200068c57600080fd5b505af1158015620006a1573d6000803e3d6000fd5b50506040517f095ea7b30000000000000000000000000000000000000000000000000000000081526001600160a01b037f000000000000000000000000000000000000000000000000000000000000000081166004830152602482018690528616935063095ea7b392506044019050602060405180830381600087803b1580156200072b57600080fd5b505af115801562000740573d6000803e3d6000fd5b505050506040513d601f19601f8201168201806040525081019062000766919062001d73565b507f00000000000000000000000000000000000000000000000000000000000000006001600160a01b03166326ef699d87878787620007d7604080518082019091527f000000000000000000000000000000000000000000000000000000000000000060ff81168252602082015290565b876040518763ffffffff1660e01b8152600401620007fb9695949392919062001d97565b600060405180830381600087803b1580156200081657600080fd5b505af11580156200082b573d6000803e3d6000fd5b50505050505050505050565b60006200084362000d3c565b90508160005b818110156200099657826001600160a01b031685858381811062000871576200087162001dec565b905060200201602081019062000888919062001c08565b6001600160a01b0316148015620008a85750336001600160a01b03881614155b15620008b45762000983565b848482818110620008c957620008c962001dec565b9050602002016020810190620008e0919062001c08565b600080546001600160a01b039283166001600160a01b031990911617905560408051898316602482015291881660448084019190915281518084039091018152606490920181526020820180516001600160e01b0316632233341160e21b179052518991908990620009529062001675565b6200095f92919062001e02565b8190604051809103906000f590508015801562000980573d6000803e3d6000fd5b50505b6200098e8162001e2f565b905062000849565b5050600080546001600160a01b0319169055505050505050565b8763b28f104b60e01b88888888888888604051602401620009d8979695949392919062001d14565b60408051601f198184030181529181526020820180516001600160e01b03166001600160e01b0319909416939093179092529051899062000a199062001675565b62000a2692919062001e02565b8190604051809103906000f59050801580156200082b573d6000803e3d6000fd5b604080516001600160a01b038481166024830152831660448083019190915282518083039091018152606490910182526020810180516001600160e01b0316632233341160e21b1790529051849190849062000aa39062001675565b62000ab092919062001e02565b8190604051809103906000f590508015801562000ad1573d6000803e3d6000fd5b5050505050565b6040517f935b13f60000000000000000000000000000000000000000000000000000000081526000906001600160a01b037f0000000000000000000000000000000000000000000000000000000000000000169063935b13f69062000b44908890889060040162001e59565b60206040518083038186803b15801562000b5d57600080fd5b505afa15801562000b72573d6000803e3d6000fd5b505050506040513d601f19601f8201168201806040525081019062000b98919062001e6f565b90508160005b8181101562000d1d57826001600160a01b031685858381811062000bc65762000bc662001dec565b905060200201602081019062000bdd919062001c08565b6001600160a01b031614801562000bfd5750336001600160a01b038d1614155b1562000c095762000d0a565b84848281811062000c1e5762000c1e62001dec565b905060200201602081019062000c35919062001c08565b600080546001600160a01b0319166001600160a01b03929092169190911790556040518d907fb28f104b000000000000000000000000000000000000000000000000000000009062000c98908f908f908f908f908f908f908f9060240162001d14565b60408051601f198184030181529181526020820180516001600160e01b03166001600160e01b03199094169390931790925290518e9062000cd99062001675565b62000ce692919062001e02565b8190604051809103906000f590508015801562000d07573d6000803e3d6000fd5b50505b62000d158162001e2f565b905062000b9e565b5050600080546001600160a01b03191690555050505050505050505050565b60007f00000000000000000000000000000000000000000000000000000000000000006001600160a01b031663935b13f662000daa604080518082019091527f000000000000000000000000000000000000000000000000000000000000000060ff81168252602082015290565b6040518263ffffffff1660e01b815260040162000dc8919062001c90565b60206040518083038186803b15801562000de157600080fd5b505afa15801562000df6573d6000803e3d6000fd5b505050506040513d601f19601f8201168201806040525081019062000e1c919062001e6f565b905090565b600062000e4c7f360894a13ba1a3210667c828492db98dca3e2076cc3735a920a3ca505d382bbc5490565b6001600160a01b0316141562000e8e576040517fbf10dd3a00000000000000000000000000000000000000000000000000000000815260040160405180910390fd5b5050565b3362000ebc7f02016836a56b71f0d02689e69e326f4f4c1b9057164ef592671cf0d37c8040c05490565b6001600160a01b03161462000ee4576040516330cd747160e01b815260040160405180910390fd5b306001600160a01b0316638291286c6040518163ffffffff1660e01b815260040160206040518083038186803b15801562000f1e57600080fd5b505afa15801562000f33573d6000803e3d6000fd5b505050506040513d601f19601f8201168201806040525081019062000f59919062001e8f565b846001600160a01b0316638291286c6040518163ffffffff1660e01b815260040160206040518083038186803b15801562000f9357600080fd5b505afa15801562000fa8573d6000803e3d6000fd5b505050506040513d601f19601f8201168201806040525081019062000fce919062001e8f565b1462001006576040517f68155f9a00000000000000000000000000000000000000000000000000000000815260040160405180910390fd5b836001600160a01b03163f83146200104a576040517f8f84fb2400000000000000000000000000000000000000000000000000000000815260040160405180910390fd5b80156200113a576000846001600160a01b0316639ded06df60e01b84846040516024016200107a92919062001e59565b60408051601f198184030181529181526020820180516001600160e01b03166001600160e01b0319909416939093179092529051620010ba919062001ea9565b600060405180830381855af49150503d8060008114620010f7576040519150601f19603f3d011682016040523d82523d6000602084013e620010fc565b606091505b505090508062001138576040517f97905dfb00000000000000000000000000000000000000000000000000000000815260040160405180910390fd5b505b6040516001600160a01b038516907fbc7cd75a20ee27fd9adebab32041f755214dbc6bffa90cc0225b39da2e5c2d3b90600090a25050507f360894a13ba1a3210667c828492db98dca3e2076cc3735a920a3ca505d382bbc55565b6000620011a789898989898962000527565b6001600160a01b031631118015620011c85750336001600160a01b03881614155b15620011d45762001304565b8060005b81811015620012f157838382818110620011f657620011f662001dec565b90506020020160208101906200120d919062001c08565b600080546001600160a01b0319166001600160a01b03929092169190911790556040518a907fa97a8d1600000000000000000000000000000000000000000000000000000000906200126c908c908c908c908c908c9060240162001cce565b60408051601f198184030181529181526020820180516001600160e01b03166001600160e01b03199094169390931790925290518b90620012ad9062001675565b620012ba92919062001e02565b8190604051809103906000f5905080158015620012db573d6000803e3d6000fd5b505080620012e99062001e2f565b9050620011d8565b5050600080546001600160a01b03191690555b5050505050505050565b8563a97a8d1660e01b86868686866040516024016200133295949392919062001cce565b60408051601f198184030181529181526020820180516001600160e01b03166001600160e01b03199094169390931790925290518790620013739062001675565b6200138092919062001e02565b8190604051809103906000f590508015801562001304573d6000803e3d6000fd5b33620013cb7f02016836a56b71f0d02689e69e326f4f4c1b9057164ef592671cf0d37c8040c05490565b6001600160a01b031614620013f3576040516330cd747160e01b815260040160405180910390fd5b6001600160a01b03811662001434576040517f49e27cff00000000000000000000000000000000000000000000000000000000815260040160405180910390fd5b6040516001600160a01b038216907f04dba622d284ed0014ee4b9a6a68386be1a4c08a4913ae272de89199cc68616390600090a27f02016836a56b71f0d02689e69e326f4f4c1b9057164ef592671cf0d37c8040c055565b604080516001600160a01b03848116602483015283166044808301919091528251808303909101815260649091019091526020810180516001600160e01b0316632233341160e21b179052600090620014e8908590856200157d565b949350505050565b805160009082901580620015055750601f8151115b156200153d576040517f8dc6ac0100000000000000000000000000000000000000000000000000000000815260040160405180910390fd5b60006200154a8262001ec7565b82516040805160ff9092169290921760208201819052925001604051602081830303815290604052620014e89062001ec7565b600060ff60f81b308560405180602001620015989062001675565b601f1982820381018352601f909101166040819052620015bf908890889060200162001e02565b60408051601f1981840301815290829052620015df929160200162001eef565b604051602081830303815290604052805190602001206040516020016200165594939291907fff0000000000000000000000000000000000000000000000000000000000000094909416845260609290921b6bffffffffffffffffffffffff191660018401526015830152603582015260550190565b60408051601f198184030181529190528051602090910120949350505050565b61028f8062001f2383390190565b6001600160a01b03811681146200169957600080fd5b50565b8035620016a98162001683565b919050565b60008083601f840112620016c157600080fd5b50813567ffffffffffffffff811115620016da57600080fd5b602083019150836020828501011115620016f357600080fd5b9250929050565b600080600080600080608087890312156200171457600080fd5b863595506020870135620017288162001683565b9450604087013567ffffffffffffffff808211156200174657600080fd5b620017548a838b01620016ae565b909650945060608901359150808211156200176e57600080fd5b506200177d89828a01620016ae565b979a9699509497509295939492505050565b60008060008060008060008060a0898b031215620017ac57600080fd5b883597506020890135620017c08162001683565b9650604089013567ffffffffffffffff80821115620017de57600080fd5b620017ec8c838d01620016ae565b909850965060608b01359150808211156200180657600080fd5b620018148c838d01620016ae565b909650945060808b01359150808211156200182e57600080fd5b506200183d8b828c01620016ae565b999c989b5096995094979396929594505050565b600080600080604085870312156200186857600080fd5b843567ffffffffffffffff808211156200188157600080fd5b6200188f88838901620016ae565b90965094506020870135915080821115620018a957600080fd5b50620018b887828801620016ae565b95989497509550505050565b60008083601f840112620018d757600080fd5b50813567ffffffffffffffff811115620018f057600080fd5b6020830191508360208260051b8501011115620016f357600080fd5b6000806000806000608086880312156200192557600080fd5b853594506020860135620019398162001683565b935060408601356200194b8162001683565b9250606086013567ffffffffffffffff8111156200196857600080fd5b6200197688828901620018c4565b969995985093965092949392505050565b6000806000606084860312156200199d57600080fd5b833592506020840135620019b18162001683565b91506040840135620019c38162001683565b809150509250925092565b60008060008060008060008060008060c08b8d031215620019ee57600080fd5b8a35995062001a0060208c016200169c565b985060408b013567ffffffffffffffff8082111562001a1e57600080fd5b62001a2c8e838f01620016ae565b909a50985060608d013591508082111562001a4657600080fd5b62001a548e838f01620016ae565b909850965060808d013591508082111562001a6e57600080fd5b62001a7c8e838f01620016ae565b909650945060a08d013591508082111562001a9657600080fd5b5062001aa58d828e01620018c4565b915080935050809150509295989b9194979a5092959850565b6000806020838503121562001ad257600080fd5b823567ffffffffffffffff81111562001aea57600080fd5b62001af885828601620016ae565b90969095509350505050565b6000806000806060858703121562001b1b57600080fd5b843562001b288162001683565b935060208501359250604085013567ffffffffffffffff81111562001b4c57600080fd5b620018b887828801620016ae565b60008060008060008060008060a0898b03121562001b7757600080fd5b88359750602089013562001b8b8162001683565b9650604089013567ffffffffffffffff8082111562001ba957600080fd5b62001bb78c838d01620016ae565b909850965060608b013591508082111562001bd157600080fd5b62001bdf8c838d01620016ae565b909650945060808b013591508082111562001bf957600080fd5b506200183d8b828c01620018c4565b60006020828403121562001c1b57600080fd5b813562001c288162001683565b9392505050565b60005b8381101562001c4c57818101518382015260200162001c32565b8381111562001c5c576000848401525b50505050565b6000815180845262001c7c81602086016020860162001c2f565b601f01601f19169290920160200192915050565b60208152600062001c28602083018462001c62565b81835281816020850137506000828201602090810191909152601f909101601f19169091010190565b6001600160a01b038616815260606020820152600062001cf360608301868862001ca5565b828103604084015262001d0881858762001ca5565b98975050505050505050565b6001600160a01b038816815260806020820152600062001d3960808301888a62001ca5565b828103604084015262001d4e81878962001ca5565b9050828103606084015262001d6581858762001ca5565b9a9950505050505050505050565b60006020828403121562001d8657600080fd5b8151801515811462001c2857600080fd5b60808152600062001dad60808301888a62001ca5565b828103602084015262001dc281878962001ca5565b9050828103604084015262001dd8818662001c62565b915050826060830152979650505050505050565b634e487b7160e01b600052603260045260246000fd5b60408152600062001e17604083018562001c62565b90506001600160a01b03831660208301529392505050565b600060001982141562001e5257634e487b7160e01b600052601160045260246000fd5b5060010190565b602081526000620014e860208301848662001ca5565b60006020828403121562001e8257600080fd5b815162001c288162001683565b60006020828403121562001ea257600080fd5b5051919050565b6000825162001ebd81846020870162001c2f565b9190910192915050565b8051602080830151919081101562001ee9576000198160200360031b1b821691505b50919050565b6000835162001f0381846020880162001c2f565b83519083019062001f1981836020880162001c2f565b0194935050505056fe608060405234801561001057600080fd5b5060405161028f38038061028f83398101604081905261002f91610191565b6000336001600160a01b031663112e335c6040518163ffffffff1660e01b8152600401602060405180830381600087803b15801561006c57600080fd5b505af1158015610080573d6000803e3d6000fd5b505050506040513d601f19601f820116820180604052508101906100a49190610250565b6001600160a01b0316836040516100bb9190610272565b600060405180830381855af49150503d80600081146100f6576040519150601f19603f3d011682016040523d82523d6000602084013e6100fb565b606091505b5050905080610111576040513d806000833e8082fd5b6001600160a01b038216610123573391505b816001600160a01b0316ff5b634e487b7160e01b600052604160045260246000fd5b60005b83811015610160578181015183820152602001610148565b8381111561016f576000848401525b50505050565b80516001600160a01b038116811461018c57600080fd5b919050565b600080604083850312156101a457600080fd5b82516001600160401b03808211156101bb57600080fd5b818501915085601f8301126101cf57600080fd5b8151818111156101e1576101e161012f565b604051601f8201601f19908116603f011681019083821181831017156102095761020961012f565b8160405282815288602084870101111561022257600080fd5b610233836020830160208801610145565b809650505050505061024760208401610175565b90509250929050565b60006020828403121561026257600080fd5b61026b82610175565b9392505050565b60008251610284818460208701610145565b919091019291505056fea26469706673582212208890c6a3ccd6aa68f52c82b10a07392b65be53eca434d644be31fe860ae95f9b64736f6c6343000809003360c06040523480156200001157600080fd5b50604051620014b8380380620014b8833981016040819052620000349162000217565b81816001600160a01b0382166200005e5760405163e6c4247b60e01b815260040160405180910390fd5b6001600160a01b03821660808190526040516349ad89fb60e11b81526000919063935b13f69062000094908590600401620002e5565b60206040518083038186803b158015620000ad57600080fd5b505afa158015620000c2573d6000803e3d6000fd5b505050506040513d601f19601f82011682018060405250810190620000e891906200031a565b6001600160a01b03161415620001115760405163010466f160e21b815260040160405180910390fd5b62000127816200013560201b62000b351760201c565b60a052506200036792505050565b8051600090829015806200014a5750601f8151115b156200016957604051638dc6ac0160e01b815260040160405180910390fd5b600062000176826200033f565b82516040805160ff9092169290921760208201819052925001604051602081830303815290604052620001a9906200033f565b949350505050565b80516001600160a01b0381168114620001c957600080fd5b919050565b634e487b7160e01b600052604160045260246000fd5b60005b8381101562000201578181015183820152602001620001e7565b8381111562000211576000848401525b50505050565b600080604083850312156200022b57600080fd5b6200023683620001b1565b60208401519092506001600160401b03808211156200025457600080fd5b818501915085601f8301126200026957600080fd5b8151818111156200027e576200027e620001ce565b604051601f8201601f19908116603f01168101908382118183101715620002a957620002a9620001ce565b81604052828152886020848701011115620002c357600080fd5b620002d6836020830160208801620001e4565b80955050505050509250929050565b602081526000825180602084015262000306816040850160208701620001e4565b601f01601f19169190910160400192915050565b6000602082840312156200032d57600080fd5b6200033882620001b1565b9392505050565b8051602080830151919081101562000361576000198160200360031b1b821691505b50919050565b60805160a0516110f4620003c46000396000818161010d01528181610458015261072d015260008181607c0152818161041c0152818161065b015281816106ed015281816107ec015281816109f90152610ab501526110f46000f3fe608060405234801561001057600080fd5b50600436106100725760003560e01c8063a97a8d1611610050578063a97a8d16146100d8578063b28f104b146100eb578063fee8cf4e146100fe57600080fd5b8063116191b61461007757806388ccd044146100bb578063996c6cc3146100d0575b600080fd5b61009e7f000000000000000000000000000000000000000000000000000000000000000081565b6040516001600160a01b0390911681526020015b60405180910390f35b6100ce6100c9366004610d22565b610147565b005b61009e610418565b6100ce6100e6366004610da4565b6104f6565b6100ce6100f9366004610e27565b6107b9565b61013a604080518082019091527f000000000000000000000000000000000000000000000000000000000000000060ff81168252602082015290565b6040516100b29190610f2c565b6000610151610418565b90506000336001600160a01b0316635cb732be6040518163ffffffff1660e01b8152600401602060405180830381600087803b15801561019057600080fd5b505af11580156101a4573d6000803e3d6000fd5b505050506040513d601f19601f820116820180604052508101906101c89190610f46565b90506001600160a01b03811615610276576001600160a01b0384166101eb573393505b6040516370a0823160e01b815230600482015261027090829086906001600160a01b038316906370a08231906024015b60206040518083038186803b15801561023357600080fd5b505afa158015610247573d6000803e3d6000fd5b505050506040513d601f19601f8201168201806040525081019061026b9190610f63565b610bc4565b50505050565b6040516370a0823160e01b81523060048201526000906001600160a01b038416906370a082319060240160206040518083038186803b1580156102b857600080fd5b505afa1580156102cc573d6000803e3d6000fd5b505050506040513d601f19601f820116820180604052508101906102f09190610f63565b905080610310576040516369b95dc960e01b815260040160405180910390fd5b6040517f2e1a7d4d000000000000000000000000000000000000000000000000000000008152600481018290526001600160a01b03841690632e1a7d4d90602401600060405180830381600087803b15801561036b57600080fd5b505af115801561037f573d6000803e3d6000fd5b505050506000846001600160a01b03168260405160006040518083038185875af1925050503d80600081146103d0576040519150601f19603f3d011682016040523d82523d6000602084013e6103d5565b606091505b5050905080610410576040517ff4b3b1bc00000000000000000000000000000000000000000000000000000000815260040160405180910390fd5b505050505050565b60007f00000000000000000000000000000000000000000000000000000000000000006001600160a01b031663935b13f6610485604080518082019091527f000000000000000000000000000000000000000000000000000000000000000060ff81168252602082015290565b6040518263ffffffff1660e01b81526004016104a19190610f2c565b60206040518083038186803b1580156104b957600080fd5b505afa1580156104cd573d6000803e3d6000fd5b505050506040513d601f19601f820116820180604052508101906104f19190610f46565b905090565b6000336001600160a01b0316635cb732be6040518163ffffffff1660e01b8152600401602060405180830381600087803b15801561053357600080fd5b505af1158015610547573d6000803e3d6000fd5b505050506040513d601f19601f8201168201806040525081019061056b9190610f46565b90506001600160a01b038116156105c8576001600160a01b03861661058e573395505b6040516370a0823160e01b81523060048201526105c290829088906001600160a01b038316906370a082319060240161021b565b506107b2565b60006105d2610418565b905047806105f3576040516369b95dc960e01b815260040160405180910390fd5b816001600160a01b031663d0e30db0826040518263ffffffff1660e01b81526004016000604051808303818588803b15801561062e57600080fd5b505af1158015610642573d6000803e3d6000fd5b505060405163095ea7b360e01b81526001600160a01b037f000000000000000000000000000000000000000000000000000000000000000081166004830152602482018690528616935063095ea7b392506044019050602060405180830381600087803b1580156106b257600080fd5b505af11580156106c6573d6000803e3d6000fd5b505050506040513d601f19601f820116820180604052508101906106ea9190610f7c565b507f00000000000000000000000000000000000000000000000000000000000000006001600160a01b03166326ef699d8888888861075a604080518082019091527f000000000000000000000000000000000000000000000000000000000000000060ff81168252602082015290565b876040518763ffffffff1660e01b815260040161077c96959493929190610fc7565b600060405180830381600087803b15801561079657600080fd5b505af11580156107aa573d6000803e3d6000fd5b505050505050505b5050505050565b6040517f935b13f60000000000000000000000000000000000000000000000000000000081526000906001600160a01b037f0000000000000000000000000000000000000000000000000000000000000000169063935b13f6906108239086908690600401611016565b60206040518083038186803b15801561083b57600080fd5b505afa15801561084f573d6000803e3d6000fd5b505050506040513d601f19601f820116820180604052508101906108739190610f46565b90506000336001600160a01b0316635cb732be6040518163ffffffff1660e01b8152600401602060405180830381600087803b1580156108b257600080fd5b505af11580156108c6573d6000803e3d6000fd5b505050506040513d601f19601f820116820180604052508101906108ea9190610f46565b90506001600160a01b03811615610948576001600160a01b03891661090d573398505b6040516370a0823160e01b81523060048201526109419082908b906001600160a01b038316906370a082319060240161021b565b5050610b2c565b6040516370a0823160e01b81523060048201526000906001600160a01b038416906370a082319060240160206040518083038186803b15801561098a57600080fd5b505afa15801561099e573d6000803e3d6000fd5b505050506040513d601f19601f820116820180604052508101906109c29190610f63565b9050806109e2576040516369b95dc960e01b815260040160405180910390fd5b60405163095ea7b360e01b81526001600160a01b037f0000000000000000000000000000000000000000000000000000000000000000811660048301526024820183905284169063095ea7b390604401602060405180830381600087803b158015610a4c57600080fd5b505af1158015610a60573d6000803e3d6000fd5b505050506040513d601f19601f82011682018060405250810190610a849190610f7c565b506040517f26ef699d0000000000000000000000000000000000000000000000000000000081526001600160a01b037f000000000000000000000000000000000000000000000000000000000000000016906326ef699d90610af6908c908c908c908c908c908c908a9060040161102a565b600060405180830381600087803b158015610b1057600080fd5b505af1158015610b24573d6000803e3d6000fd5b505050505050505b50505050505050565b805160009082901580610b495750601f8151115b15610b80576040517f8dc6ac0100000000000000000000000000000000000000000000000000000000815260040160405180910390fd5b6000610b8b8261107b565b82516040805160ff9092169290921760208201819052925001604051602081830303815290604052610bbc9061107b565b949350505050565b604080516001600160a01b038481166024830152604480830185905283518084039091018152606490920183526020820180517bffffffffffffffffffffffffffffffffffffffffffffffffffffffff167fa9059cbb000000000000000000000000000000000000000000000000000000001790529151600092839290871691610c4e91906110a2565b6000604051808303816000865af19150503d8060008114610c8b576040519150601f19603f3d011682016040523d82523d6000602084013e610c90565b606091505b50915091506000828015610cbc575081511580610cbc575081806020019051810190610cbc9190610f7c565b9050801580610cd357506001600160a01b0386163b155b15610410576040517f045c4b0200000000000000000000000000000000000000000000000000000000815260040160405180910390fd5b6001600160a01b0381168114610d1f57600080fd5b50565b60008060408385031215610d3557600080fd5b8235610d4081610d0a565b91506020830135610d5081610d0a565b809150509250929050565b60008083601f840112610d6d57600080fd5b50813567ffffffffffffffff811115610d8557600080fd5b602083019150836020828501011115610d9d57600080fd5b9250929050565b600080600080600060608688031215610dbc57600080fd5b8535610dc781610d0a565b9450602086013567ffffffffffffffff80821115610de457600080fd5b610df089838a01610d5b565b90965094506040880135915080821115610e0957600080fd5b50610e1688828901610d5b565b969995985093965092949392505050565b60008060008060008060006080888a031215610e4257600080fd5b8735610e4d81610d0a565b9650602088013567ffffffffffffffff80821115610e6a57600080fd5b610e768b838c01610d5b565b909850965060408a0135915080821115610e8f57600080fd5b610e9b8b838c01610d5b565b909650945060608a0135915080821115610eb457600080fd5b50610ec18a828b01610d5b565b989b979a50959850939692959293505050565b60005b83811015610eef578181015183820152602001610ed7565b838111156102705750506000910152565b60008151808452610f18816020860160208601610ed4565b601f01601f19169290920160200192915050565b602081526000610f3f6020830184610f00565b9392505050565b600060208284031215610f5857600080fd5b8151610f3f81610d0a565b600060208284031215610f7557600080fd5b5051919050565b600060208284031215610f8e57600080fd5b81518015158114610f3f57600080fd5b81835281816020850137506000828201602090810191909152601f909101601f19169091010190565b608081526000610fdb60808301888a610f9e565b8281036020840152610fee818789610f9e565b905082810360408401526110028186610f00565b915050826060830152979650505050505050565b602081526000610bbc602083018486610f9e565b60808152600061103e60808301898b610f9e565b828103602084015261105181888a610f9e565b90508281036040840152611066818688610f9e565b91505082606083015298975050505050505050565b8051602080830151919081101561109c576000198160200360031b1b821691505b50919050565b600082516110b4818460208701610ed4565b919091019291505056fea26469706673582212203ff4690b62b03c0c5357a65bd25e163ca4912f9c2a670da46272b377e4fd49e564736f6c63430008090033",
  "linkReferences": {},
  "deployedLinkReferences": {}
}