{
  "_format": "hh-sol-artifact-1",
  "contractName": "AxelarDepositServiceProxy",
  "sourceName": "contracts/deposit-service/AxelarDepositServiceProxy.sol",
  "abi": [
    {
      "inputs": [],
      "name": "AlreadyInitialized",
      "type": "error"
    },
    {
      "inputs": [],
      "name": "EtherNotAccepted",
      "type": "error"
    },
    {
      "inputs": [],
      "name": "InvalidImplementation",
      "type": "error"
    },
    {
      "inputs": [],
      "name": "NotOwner",
      "type": "error"
    },
    {
      "inputs": [],
      "name": "SetupFailed",
      "type": "error"
    },
    {
      "stateMutability": "payable",
      "type": "fallback"
    },
    {
      "inputs": [],
      "name": "implementation",
      "outputs": [
        {
          "internalType": "address",
          "name": "implementation_",
          "type": "address"
        }
      ],
      "stateMutability": "view",
      "type": "function"
    },
    {
      "inputs": [
        {
          "internalType": "address",
          "name": "implementationAddress",
          "type": "address"
        },
        {
          "internalType": "address",
          "name": "newOwner",
          "type": "address"
        },
        {
          "internalType": "bytes",
          "name": "params",
          "type": "bytes"
        }
      ],
      "name": "init",
      "outputs": [],
      "stateMutability": "nonpayable",
      "type": "function"
    },
    {
      "inputs": [
        {
          "internalType": "bytes",
          "name": "data",
          "type": "bytes"
        }
      ],
      "name": "setup",
      "outputs": [],
      "stateMutability": "nonpayable",
      "type": "function"
    },
    {
      "stateMutability": "payable",
      "type": "receive"
    }
  ],
  "bytecode": "0x608060405234801561001057600080fd5b50337f02016836a56b71f0d02689e69e326f4f4c1b9057164ef592671cf0d37c8040c055610647806100436000396000f3fe6080604052600436106100385760003560e01c8063378dfd8e1461008f5780635c60da1b146100b15780639ded06df146100fc5761003f565b3661003f57005b60006100697f360894a13ba1a3210667c828492db98dca3e2076cc3735a920a3ca505d382bbc5490565b90503660008037600080366000845af43d6000803e80801561008a573d6000f35b3d6000fd5b34801561009b57600080fd5b506100af6100aa366004610435565b61011b565b005b3480156100bd57600080fd5b507f360894a13ba1a3210667c828492db98dca3e2076cc3735a920a3ca505d382bbc546040516001600160a01b03909116815260200160405180910390f35b34801561010857600080fd5b506100af610117366004610507565b5050565b7f02016836a56b71f0d02689e69e326f4f4c1b9057164ef592671cf0d37c8040c054336001600160a01b0382161461017f576040517f30cd747100000000000000000000000000000000000000000000000000000000815260040160405180910390fd5b60006101a97f360894a13ba1a3210667c828492db98dca3e2076cc3735a920a3ca505d382bbc5490565b6001600160a01b0316146101e9576040517f0dc149f000000000000000000000000000000000000000000000000000000000815260040160405180910390fd5b7fb8e1544725348a2fe538aa3da850e3b074cd75bac06629b2beb717eaee8dd707846001600160a01b0316638291286c6040518163ffffffff1660e01b815260040160206040518083038186803b15801561024357600080fd5b505afa158015610257573d6000803e3d6000fd5b505050506040513d601f19601f8201168201806040525081019061027b9190610579565b146102b2576040517f68155f9a00000000000000000000000000000000000000000000000000000000815260040160405180910390fd5b837f360894a13ba1a3210667c828492db98dca3e2076cc3735a920a3ca505d382bbc55827f02016836a56b71f0d02689e69e326f4f4c1b9057164ef592671cf0d37c8040c0556000846001600160a01b0316639ded06df8460405160240161031a91906105c2565b6040516020818303038152906040529060e01b6020820180517bffffffffffffffffffffffffffffffffffffffffffffffffffffffff838183161783525050505060405161036891906105f5565b600060405180830381855af49150503d80600081146103a3576040519150601f19603f3d011682016040523d82523d6000602084013e6103a8565b606091505b50509050806103e3576040517f97905dfb00000000000000000000000000000000000000000000000000000000815260040160405180910390fd5b5050505050565b80356001600160a01b038116811461040157600080fd5b919050565b7f4e487b7100000000000000000000000000000000000000000000000000000000600052604160045260246000fd5b60008060006060848603121561044a57600080fd5b610453846103ea565b9250610461602085016103ea565b9150604084013567ffffffffffffffff8082111561047e57600080fd5b818601915086601f83011261049257600080fd5b8135818111156104a4576104a4610406565b604051601f8201601f19908116603f011681019083821181831017156104cc576104cc610406565b816040528281528960208487010111156104e557600080fd5b8260208601602083013760006020848301015280955050505050509250925092565b6000806020838503121561051a57600080fd5b823567ffffffffffffffff8082111561053257600080fd5b818501915085601f83011261054657600080fd5b81358181111561055557600080fd5b86602082850101111561056757600080fd5b60209290920196919550909350505050565b60006020828403121561058b57600080fd5b5051919050565b60005b838110156105ad578181015183820152602001610595565b838111156105bc576000848401525b50505050565b60208152600082518060208401526105e1816040850160208701610592565b601f01601f19169190910160400192915050565b60008251610607818460208701610592565b919091019291505056fea264697066735822122084cc8a7ccd85a7b44c7440c5a3f186e664ca625d292613d5b76ebc314035fd8c64736f6c63430008090033",
  "linkReferences": {},
  "deployedLinkReferences": {}
}