{
  "_format": "hh-sol-artifact-1",
  "contractName": "SourceChainSwapCaller",
  "sourceName": "contracts/test/gmp/SourceChainSwapCaller.sol",
  "abi": [
    {
      "inputs": [
        {
          "internalType": "address",
          "name": "gateway_",
          "type": "address"
        },
        {
          "internalType": "address",
          "name": "gasService_",
          "type": "address"
        },
        {
          "internalType": "string",
          "name": "destinationChain_",
          "type": "string"
        },
        {
          "internalType": "string",
          "name": "executableAddress_",
          "type": "string"
        }
      ],
      "stateMutability": "nonpayable",
      "type": "constructor"
    },
    {
      "inputs": [],
      "name": "destinationChain",
      "outputs": [
        {
          "internalType": "string",
          "name": "",
          "type": "string"
        }
      ],
      "stateMutability": "view",
      "type": "function"
    },
    {
      "inputs": [],
      "name": "executableAddress",
      "outputs": [
        {
          "internalType": "string",
          "name": "",
          "type": "string"
        }
      ],
      "stateMutability": "view",
      "type": "function"
    },
    {
      "inputs": [],
      "name": "gasService",
      "outputs": [
        {
          "internalType": "contract IAxelarGasService",
          "name": "",
          "type": "address"
        }
      ],
      "stateMutability": "view",
      "type": "function"
    },
    {
      "inputs": [],
      "name": "gateway",
      "outputs": [
        {
          "internalType": "contract IAxelarGateway",
          "name": "",
          "type": "address"
        }
      ],
      "stateMutability": "view",
      "type": "function"
    },
    {
      "inputs": [
        {
          "internalType": "string",
          "name": "symbolX",
          "type": "string"
        },
        {
          "internalType": "string",
          "name": "symbolY",
          "type": "string"
        },
        {
          "internalType": "uint256",
          "name": "amount",
          "type": "uint256"
        },
        {
          "internalType": "string",
          "name": "recipient",
          "type": "string"
        },
        {
          "internalType": "uint256",
          "name": "gasFee",
          "type": "uint256"
        }
      ],
      "name": "swapToken",
      "outputs": [],
      "stateMutability": "nonpayable",
      "type": "function"
    }
  ],
  "bytecode": "0x60806040523480156200001157600080fd5b5060405162000c6b38038062000c6b83398101604081905262000034916200022a565b600080546001600160a01b038087166001600160a01b03199283161790925560018054928616929091169190911790558151620000799060029060208501906200009a565b5080516200008f9060039060208401906200009a565b5050505050620002f7565b828054620000a890620002ba565b90600052602060002090601f016020900481019282620000cc576000855562000117565b82601f10620000e757805160ff191683800117855562000117565b8280016001018555821562000117579182015b8281111562000117578251825591602001919060010190620000fa565b506200012592915062000129565b5090565b5b808211156200012557600081556001016200012a565b80516001600160a01b03811681146200015857600080fd5b919050565b634e487b7160e01b600052604160045260246000fd5b600082601f8301126200018557600080fd5b81516001600160401b0380821115620001a257620001a26200015d565b604051601f8301601f19908116603f01168101908282118183101715620001cd57620001cd6200015d565b81604052838152602092508683858801011115620001ea57600080fd5b600091505b838210156200020e5785820183015181830184015290820190620001ef565b83821115620002205760008385830101525b9695505050505050565b600080600080608085870312156200024157600080fd5b6200024c8562000140565b93506200025c6020860162000140565b60408601519093506001600160401b03808211156200027a57600080fd5b620002888883890162000173565b935060608701519150808211156200029f57600080fd5b50620002ae8782880162000173565b91505092959194509250565b600181811c90821680620002cf57607f821691505b60208210811415620002f157634e487b7160e01b600052602260045260246000fd5b50919050565b61096480620003076000396000f3fe608060405234801561001057600080fd5b50600436106100675760003560e01c80639d1c250a116100505780639d1c250a146100af578063edaa1ae3146100c4578063fd1337a6146100d957600080fd5b8063116191b61461006c5780636a22d8cc1461009c575b600080fd5b60005461007f906001600160a01b031681565b6040516001600160a01b0390911681526020015b60405180910390f35b60015461007f906001600160a01b031681565b6100c26100bd3660046105c6565b6100e1565b005b6100cc610488565b60405161009391906106ad565b6100cc610516565b600080546040517f935b13f60000000000000000000000000000000000000000000000000000000081526001600160a01b039091169063935b13f69061012b9089906004016106ad565b60206040518083038186803b15801561014357600080fd5b505afa158015610157573d6000803e3d6000fd5b505050506040513d601f19601f8201168201806040525081019061017b91906106c7565b9050600085846040516020016101929291906106f0565b60408051601f1981840301815291905290506001600160a01b0382166323b872dd33306101bf878a61071e565b6040517fffffffff0000000000000000000000000000000000000000000000000000000060e086901b1681526001600160a01b0393841660048201529290911660248301526044820152606401602060405180830381600087803b15801561022657600080fd5b505af115801561023a573d6000803e3d6000fd5b505050506040513d601f19601f8201168201806040525081019061025e9190610744565b5060015460405163095ea7b360e01b81526001600160a01b039182166004820152602481018590529083169063095ea7b390604401602060405180830381600087803b1580156102ad57600080fd5b505af11580156102c1573d6000803e3d6000fd5b505050506040513d601f19601f820116820180604052508101906102e59190610744565b506001546040517fedb6b3a50000000000000000000000000000000000000000000000000000000081526001600160a01b039091169063edb6b3a59061034190309060029060039087908e908d908b908d903390600401610841565b600060405180830381600087803b15801561035b57600080fd5b505af115801561036f573d6000803e3d6000fd5b505060005460405163095ea7b360e01b81526001600160a01b03918216600482015260248101899052908516925063095ea7b39150604401602060405180830381600087803b1580156103c157600080fd5b505af11580156103d5573d6000803e3d6000fd5b505050506040513d601f19601f820116820180604052508101906103f99190610744565b506000546040517fb54170840000000000000000000000000000000000000000000000000000000081526001600160a01b039091169063b54170849061044d9060029060039086908d908c906004016108ce565b600060405180830381600087803b15801561046757600080fd5b505af115801561047b573d6000803e3d6000fd5b5050505050505050505050565b6003805461049590610766565b80601f01602080910402602001604051908101604052809291908181526020018280546104c190610766565b801561050e5780601f106104e35761010080835404028352916020019161050e565b820191906000526020600020905b8154815290600101906020018083116104f157829003601f168201915b505050505081565b6002805461049590610766565b634e487b7160e01b600052604160045260246000fd5b600082601f83011261054a57600080fd5b813567ffffffffffffffff8082111561056557610565610523565b604051601f8301601f19908116603f0116810190828211818310171561058d5761058d610523565b816040528381528660208588010111156105a657600080fd5b836020870160208301376000602085830101528094505050505092915050565b600080600080600060a086880312156105de57600080fd5b853567ffffffffffffffff808211156105f657600080fd5b61060289838a01610539565b9650602088013591508082111561061857600080fd5b61062489838a01610539565b955060408801359450606088013591508082111561064157600080fd5b5061064e88828901610539565b95989497509295608001359392505050565b6000815180845260005b818110156106865760208185018101518683018201520161066a565b81811115610698576000602083870101525b50601f01601f19169290920160200192915050565b6020815260006106c06020830184610660565b9392505050565b6000602082840312156106d957600080fd5b81516001600160a01b03811681146106c057600080fd5b6040815260006107036040830185610660565b82810360208401526107158185610660565b95945050505050565b6000821982111561073f57634e487b7160e01b600052601160045260246000fd5b500190565b60006020828403121561075657600080fd5b815180151581146106c057600080fd5b600181811c9082168061077a57607f821691505b6020821081141561079b57634e487b7160e01b600052602260045260246000fd5b50919050565b8054600090600181811c90808316806107bb57607f831692505b60208084108214156107dd57634e487b7160e01b600052602260045260246000fd5b838852602088018280156107f8576001811461080957610834565b60ff19871682528282019750610834565b60008981526020902060005b8781101561082e57815484820152908601908401610815565b83019850505b5050505050505092915050565b60006101206001600160a01b03808d1684528160208501526108658285018d6107a1565b91508382036040850152610879828c6107a1565b9150838203606085015261088d828b610660565b915083820360808501526108a1828a610660565b60a085019890985295861660c0840152505060e08101929092529091166101009091015295945050505050565b60a0815260006108e160a08301886107a1565b82810360208401526108f381886107a1565b905082810360408401526109078187610660565b9050828103606084015261091b8186610660565b915050826080830152969550505050505056fea2646970667358221220285812ab5b5db1fbb1d4f6502ebd5c09ac9852c61a6eab4828c322a0f0959c7a64736f6c63430008090033",
  "linkReferences": {},
  "deployedLinkReferences": {}
}