{
  "_format": "hh-sol-artifact-1",
  "contractName": "TestWeth",
  "sourceName": "contracts/test/TestWeth.sol",
  "abi": [
    {
      "inputs": [
        {
          "internalType": "string",
          "name": "name",
          "type": "string"
        },
        {
          "internalType": "string",
          "name": "symbol",
          "type": "string"
        },
        {
          "internalType": "uint8",
          "name": "decimals",
          "type": "uint8"
        },
        {
          "internalType": "uint256",
          "name": "capacity",
          "type": "uint256"
        }
      ],
      "stateMutability": "nonpayable",
      "type": "constructor"
    },
    {
      "inputs": [],
      "name": "CapExceeded",
      "type": "error"
    },
    {
      "inputs": [],
      "name": "InvalidAccount",
      "type": "error"
    },
    {
      "inputs": [],
      "name": "InvalidOwner",
      "type": "error"
    },
    {
      "inputs": [],
      "name": "InvalidS",
      "type": "error"
    },
    {
      "inputs": [],
      "name": "InvalidSignature",
      "type": "error"
    },
    {
      "inputs": [],
      "name": "InvalidV",
      "type": "error"
    },
    {
      "inputs": [],
      "name": "NotOwner",
      "type": "error"
    },
    {
      "inputs": [],
      "name": "PermitExpired",
      "type": "error"
    },
    {
      "anonymous": false,
      "inputs": [
        {
          "indexed": true,
          "internalType": "address",
          "name": "owner",
          "type": "address"
        },
        {
          "indexed": true,
          "internalType": "address",
          "name": "spender",
          "type": "address"
        },
        {
          "indexed": false,
          "internalType": "uint256",
          "name": "value",
          "type": "uint256"
        }
      ],
      "name": "Approval",
      "type": "event"
    },
    {
      "anonymous": false,
      "inputs": [
        {
          "indexed": true,
          "internalType": "address",
          "name": "previousOwner",
          "type": "address"
        },
        {
          "indexed": true,
          "internalType": "address",
          "name": "newOwner",
          "type": "address"
        }
      ],
      "name": "OwnershipTransferred",
      "type": "event"
    },
    {
      "anonymous": false,
      "inputs": [
        {
          "indexed": true,
          "internalType": "address",
          "name": "from",
          "type": "address"
        },
        {
          "indexed": true,
          "internalType": "address",
          "name": "to",
          "type": "address"
        },
        {
          "indexed": false,
          "internalType": "uint256",
          "name": "value",
          "type": "uint256"
        }
      ],
      "name": "Transfer",
      "type": "event"
    },
    {
      "inputs": [],
      "name": "DOMAIN_SEPARATOR",
      "outputs": [
        {
          "internalType": "bytes32",
          "name": "",
          "type": "bytes32"
        }
      ],
      "stateMutability": "view",
      "type": "function"
    },
    {
      "inputs": [
        {
          "internalType": "address",
          "name": "",
          "type": "address"
        },
        {
          "internalType": "address",
          "name": "",
          "type": "address"
        }
      ],
      "name": "allowance",
      "outputs": [
        {
          "internalType": "uint256",
          "name": "",
          "type": "uint256"
        }
      ],
      "stateMutability": "view",
      "type": "function"
    },
    {
      "inputs": [
        {
          "internalType": "address",
          "name": "spender",
          "type": "address"
        },
        {
          "internalType": "uint256",
          "name": "amount",
          "type": "uint256"
        }
      ],
      "name": "approve",
      "outputs": [
        {
          "internalType": "bool",
          "name": "",
          "type": "bool"
        }
      ],
      "stateMutability": "nonpayable",
      "type": "function"
    },
    {
      "inputs": [
        {
          "internalType": "address",
          "name": "",
          "type": "address"
        }
      ],
      "name": "balanceOf",
      "outputs": [
        {
          "internalType": "uint256",
          "name": "",
          "type": "uint256"
        }
      ],
      "stateMutability": "view",
      "type": "function"
    },
    {
      "inputs": [],
      "name": "cap",
      "outputs": [
        {
          "internalType": "uint256",
          "name": "",
          "type": "uint256"
        }
      ],
      "stateMutability": "view",
      "type": "function"
    },
    {
      "inputs": [],
      "name": "decimals",
      "outputs": [
        {
          "internalType": "uint8",
          "name": "",
          "type": "uint8"
        }
      ],
      "stateMutability": "view",
      "type": "function"
    },
    {
      "inputs": [
        {
          "internalType": "address",
          "name": "spender",
          "type": "address"
        },
        {
          "internalType": "uint256",
          "name": "subtractedValue",
          "type": "uint256"
        }
      ],
      "name": "decreaseAllowance",
      "outputs": [
        {
          "internalType": "bool",
          "name": "",
          "type": "bool"
        }
      ],
      "stateMutability": "nonpayable",
      "type": "function"
    },
    {
      "inputs": [],
      "name": "deposit",
      "outputs": [],
      "stateMutability": "payable",
      "type": "function"
    },
    {
      "inputs": [
        {
          "internalType": "address",
          "name": "spender",
          "type": "address"
        },
        {
          "internalType": "uint256",
          "name": "addedValue",
          "type": "uint256"
        }
      ],
      "name": "increaseAllowance",
      "outputs": [
        {
          "internalType": "bool",
          "name": "",
          "type": "bool"
        }
      ],
      "stateMutability": "nonpayable",
      "type": "function"
    },
    {
      "inputs": [
        {
          "internalType": "address",
          "name": "account",
          "type": "address"
        },
        {
          "internalType": "uint256",
          "name": "amount",
          "type": "uint256"
        }
      ],
      "name": "mint",
      "outputs": [],
      "stateMutability": "nonpayable",
      "type": "function"
    },
    {
      "inputs": [],
      "name": "name",
      "outputs": [
        {
          "internalType": "string",
          "name": "",
          "type": "string"
        }
      ],
      "stateMutability": "view",
      "type": "function"
    },
    {
      "inputs": [
        {
          "internalType": "address",
          "name": "",
          "type": "address"
        }
      ],
      "name": "nonces",
      "outputs": [
        {
          "internalType": "uint256",
          "name": "",
          "type": "uint256"
        }
      ],
      "stateMutability": "view",
      "type": "function"
    },
    {
      "inputs": [],
      "name": "owner",
      "outputs": [
        {
          "internalType": "address",
          "name": "",
          "type": "address"
        }
      ],
      "stateMutability": "view",
      "type": "function"
    },
    {
      "inputs": [
        {
          "internalType": "address",
          "name": "issuer",
          "type": "address"
        },
        {
          "internalType": "address",
          "name": "spender",
          "type": "address"
        },
        {
          "internalType": "uint256",
          "name": "value",
          "type": "uint256"
        },
        {
          "internalType": "uint256",
          "name": "deadline",
          "type": "uint256"
        },
        {
          "internalType": "uint8",
          "name": "v",
          "type": "uint8"
        },
        {
          "internalType": "bytes32",
          "name": "r",
          "type": "bytes32"
        },
        {
          "internalType": "bytes32",
          "name": "s",
          "type": "bytes32"
        }
      ],
      "name": "permit",
      "outputs": [],
      "stateMutability": "nonpayable",
      "type": "function"
    },
    {
      "inputs": [],
      "name": "symbol",
      "outputs": [
        {
          "internalType": "string",
          "name": "",
          "type": "string"
        }
      ],
      "stateMutability": "view",
      "type": "function"
    },
    {
      "inputs": [],
      "name": "totalSupply",
      "outputs": [
        {
          "internalType": "uint256",
          "name": "",
          "type": "uint256"
        }
      ],
      "stateMutability": "view",
      "type": "function"
    },
    {
      "inputs": [
        {
          "internalType": "address",
          "name": "recipient",
          "type": "address"
        },
        {
          "internalType": "uint256",
          "name": "amount",
          "type": "uint256"
        }
      ],
      "name": "transfer",
      "outputs": [
        {
          "internalType": "bool",
          "name": "",
          "type": "bool"
        }
      ],
      "stateMutability": "nonpayable",
      "type": "function"
    },
    {
      "inputs": [
        {
          "internalType": "address",
          "name": "sender",
          "type": "address"
        },
        {
          "internalType": "address",
          "name": "recipient",
          "type": "address"
        },
        {
          "internalType": "uint256",
          "name": "amount",
          "type": "uint256"
        }
      ],
      "name": "transferFrom",
      "outputs": [
        {
          "internalType": "bool",
          "name": "",
          "type": "bool"
        }
      ],
      "stateMutability": "nonpayable",
      "type": "function"
    },
    {
      "inputs": [
        {
          "internalType": "address",
          "name": "newOwner",
          "type": "address"
        }
      ],
      "name": "transferOwnership",
      "outputs": [],
      "stateMutability": "nonpayable",
      "type": "function"
    },
    {
      "inputs": [
        {
          "internalType": "uint256",
          "name": "amount",
          "type": "uint256"
        }
      ],
      "name": "withdraw",
      "outputs": [],
      "stateMutability": "nonpayable",
      "type": "function"
    }
  ],
  "bytecode": "0x60e06040523480156200001157600080fd5b50604051620013a5380380620013a58339810160408190526200003491620002e1565b83838383838484848260039080519060200190620000549291906200016e565b5081516200006a9060049060208501906200016e565b5060ff166080908152835160208086019190912060408051808201825260018152603160f81b9084015280517f8b73c3c69bb8fe3d512ecc4cf759cc79239f7b179b0ffacaa9a75d522b39400f938101939093528201527fc89efdaa54c0f20c7adf612882df0950f5a951637e0307cdcb4c672f298b8bc6606082015246918101919091523060a082015260c0019150620001029050565b60408051601f1981840301815290829052805160209091012060a052600680546001600160a01b0319163390811790915591506000907f8be0079c531659141344cd1fd0a4f28419497f9722a3daafe3b4186f6b6457e0908290a360c05250620003a995505050505050565b8280546200017c906200036c565b90600052602060002090601f016020900481019282620001a05760008555620001eb565b82601f10620001bb57805160ff1916838001178555620001eb565b82800160010185558215620001eb579182015b82811115620001eb578251825591602001919060010190620001ce565b50620001f9929150620001fd565b5090565b5b80821115620001f95760008155600101620001fe565b634e487b7160e01b600052604160045260246000fd5b600082601f8301126200023c57600080fd5b81516001600160401b038082111562000259576200025962000214565b604051601f8301601f19908116603f0116810190828211818310171562000284576200028462000214565b81604052838152602092508683858801011115620002a157600080fd5b600091505b83821015620002c55785820183015181830184015290820190620002a6565b83821115620002d75760008385830101525b9695505050505050565b60008060008060808587031215620002f857600080fd5b84516001600160401b03808211156200031057600080fd5b6200031e888389016200022a565b955060208701519150808211156200033557600080fd5b5062000344878288016200022a565b935050604085015160ff811681146200035c57600080fd5b6060959095015193969295505050565b600181811c908216806200038157607f821691505b60208210811415620003a357634e487b7160e01b600052602260045260246000fd5b50919050565b60805160a05160c051610fbe620003e76000396000818161027d015261064a0152600081816102b1015261086a015260006102370152610fbe6000f3fe60806040526004361061015f5760003560e01c806370a08231116100c0578063a9059cbb11610074578063d505accf11610059578063d505accf14610402578063dd62ed3e14610422578063f2fde38b1461045a57600080fd5b8063a9059cbb146103da578063d0e30db0146103fa57600080fd5b80638da5cb5b116100a55780638da5cb5b1461036d57806395d89b41146103a5578063a457c2d7146103ba57600080fd5b806370a08231146103135780637ecebe001461034057600080fd5b8063313ce567116101175780633644e515116100fc5780633644e5151461029f57806339509351146102d357806340c10f19146102f357600080fd5b8063313ce56714610225578063355274ea1461026b57600080fd5b806318160ddd1161014857806318160ddd146101bf57806323b872dd146101e35780632e1a7d4d1461020357600080fd5b806306fdde0314610164578063095ea7b31461018f575b600080fd5b34801561017057600080fd5b5061017961047a565b6040516101869190610d30565b60405180910390f35b34801561019b57600080fd5b506101af6101aa366004610d7f565b610508565b6040519015158152602001610186565b3480156101cb57600080fd5b506101d560025481565b604051908152602001610186565b3480156101ef57600080fd5b506101af6101fe366004610da9565b61051e565b34801561020f57600080fd5b5061022361021e366004610de5565b610575565b005b34801561023157600080fd5b506102597f000000000000000000000000000000000000000000000000000000000000000081565b60405160ff9091168152602001610186565b34801561027757600080fd5b506101d57f000000000000000000000000000000000000000000000000000000000000000081565b3480156102ab57600080fd5b506101d57f000000000000000000000000000000000000000000000000000000000000000081565b3480156102df57600080fd5b506101af6102ee366004610d7f565b6105e6565b3480156102ff57600080fd5b5061022361030e366004610d7f565b61061d565b34801561031f57600080fd5b506101d561032e366004610dfe565b60006020819052908152604090205481565b34801561034c57600080fd5b506101d561035b366004610dfe565b60056020526000908152604090205481565b34801561037957600080fd5b5060065461038d906001600160a01b031681565b6040516001600160a01b039091168152602001610186565b3480156103b157600080fd5b506101796106be565b3480156103c657600080fd5b506101af6103d5366004610d7f565b6106cb565b3480156103e657600080fd5b506101af6103f5366004610d7f565b610702565b61022361070f565b34801561040e57600080fd5b5061022361041d366004610e20565b610735565b34801561042e57600080fd5b506101d561043d366004610e93565b600160209081526000928352604080842090915290825290205481565b34801561046657600080fd5b50610223610475366004610dfe565b6109f8565b6003805461048790610ec6565b80601f01602080910402602001604051908101604052809291908181526020018280546104b390610ec6565b80156105005780601f106104d557610100808354040283529160200191610500565b820191906000526020600020905b8154815290600101906020018083116104e357829003601f168201915b505050505081565b6000610515338484610ad7565b50600192915050565b6001600160a01b0383166000908152600160209081526040808320338452909152812054600019811461055f5761055f853361055a8685610f17565b610ad7565b61056a858585610b74565b506001949350505050565b3360009081526020819052604090205481111561059157600080fd5b33600090815260208190526040812080548392906105b0908490610f17565b9091555050604051339082156108fc029083906000818181858888f193505050501580156105e2573d6000803e3d6000fd5b5050565b3360008181526001602090815260408083206001600160a01b0387168452909152812054909161051591859061055a908690610f2e565b6006546001600160a01b03163314610648576040516330cd747160e01b815260040160405180910390fd5b7f00000000000000000000000000000000000000000000000000000000000000006106738383610c50565b8061067d57505050565b8060025411156106b9576040517fa4875a4900000000000000000000000000000000000000000000000000000000815260040160405180910390fd5b505050565b6004805461048790610ec6565b3360008181526001602090815260408083206001600160a01b0387168452909152812054909161051591859061055a908690610f17565b6000610515338484610b74565b336000908152602081905260408120805434929061072e908490610f2e565b9091555050565b8342111561076f576040517f1a15a3cc00000000000000000000000000000000000000000000000000000000815260040160405180910390fd5b7f7fffffffffffffffffffffffffffffff5d576e7357a4501ddfe92f46681b20a08111156107c9576040517f40c1e74800000000000000000000000000000000000000000000000000000000815260040160405180910390fd5b8260ff16601b141580156107e157508260ff16601c14155b15610818576040517f119bce3900000000000000000000000000000000000000000000000000000000815260040160405180910390fd5b604080518082018252600281527f19010000000000000000000000000000000000000000000000000000000000006020808301919091526001600160a01b038a166000908152600590915291822080547f0000000000000000000000000000000000000000000000000000000000000000917f6e71edae12b1b97f4d1f60370fef10105fa2faae0126114a169c64845d6126c9918c918c918c91886108bc83610f46565b909155506040805160208101969096526001600160a01b0394851690860152929091166060840152608083015260a082015260c0810188905260e0016040516020818303038152906040528051906020012060405160200161092093929190610f61565b60408051601f198184030181528282528051602091820120600080855291840180845281905260ff88169284019290925260608301869052608083018590529092509060019060a0016020604051602081039080840390855afa15801561098b573d6000803e3d6000fd5b505050602060405103519050886001600160a01b0316816001600160a01b0316146109e2576040517f8baa579f00000000000000000000000000000000000000000000000000000000815260040160405180910390fd5b6109ed898989610ad7565b505050505050505050565b6006546001600160a01b03163314610a23576040516330cd747160e01b815260040160405180910390fd5b6001600160a01b038116610a63576040517f49e27cff00000000000000000000000000000000000000000000000000000000815260040160405180910390fd5b6006546040516001600160a01b038084169216907f8be0079c531659141344cd1fd0a4f28419497f9722a3daafe3b4186f6b6457e090600090a3600680547fffffffffffffffffffffffff0000000000000000000000000000000000000000166001600160a01b0392909216919091179055565b6001600160a01b0383161580610af457506001600160a01b038216155b15610b1257604051630da30f6560e31b815260040160405180910390fd5b6001600160a01b0383811660008181526001602090815260408083209487168084529482529182902085905590518481527f8c5be1e5ebec7d5bd14f71427d1e84f3dd0314c0f7b2291e5b200ac8c7c3b92591015b60405180910390a3505050565b6001600160a01b0383161580610b9157506001600160a01b038216155b15610baf57604051630da30f6560e31b815260040160405180910390fd5b6001600160a01b03831660009081526020819052604081208054839290610bd7908490610f17565b90915550506001600160a01b03821660009081526020819052604081208054839290610c04908490610f2e565b92505081905550816001600160a01b0316836001600160a01b03167fddf252ad1be2c89b69c2b068fc378daa952ba7f163c4a11628f55a4df523b3ef83604051610b6791815260200190565b6001600160a01b038216610c7757604051630da30f6560e31b815260040160405180910390fd5b8060026000828254610c899190610f2e565b90915550506001600160a01b03821660009081526020819052604081208054839290610cb6908490610f2e565b90915550506040518181526001600160a01b038316906000907fddf252ad1be2c89b69c2b068fc378daa952ba7f163c4a11628f55a4df523b3ef9060200160405180910390a35050565b60005b83811015610d1b578181015183820152602001610d03565b83811115610d2a576000848401525b50505050565b6020815260008251806020840152610d4f816040850160208701610d00565b601f01601f19169190910160400192915050565b80356001600160a01b0381168114610d7a57600080fd5b919050565b60008060408385031215610d9257600080fd5b610d9b83610d63565b946020939093013593505050565b600080600060608486031215610dbe57600080fd5b610dc784610d63565b9250610dd560208501610d63565b9150604084013590509250925092565b600060208284031215610df757600080fd5b5035919050565b600060208284031215610e1057600080fd5b610e1982610d63565b9392505050565b600080600080600080600060e0888a031215610e3b57600080fd5b610e4488610d63565b9650610e5260208901610d63565b95506040880135945060608801359350608088013560ff81168114610e7657600080fd5b9699959850939692959460a0840135945060c09093013592915050565b60008060408385031215610ea657600080fd5b610eaf83610d63565b9150610ebd60208401610d63565b90509250929050565b600181811c90821680610eda57607f821691505b60208210811415610efb57634e487b7160e01b600052602260045260246000fd5b50919050565b634e487b7160e01b600052601160045260246000fd5b600082821015610f2957610f29610f01565b500390565b60008219821115610f4157610f41610f01565b500190565b6000600019821415610f5a57610f5a610f01565b5060010190565b60008451610f73818460208901610d00565b9190910192835250602082015260400191905056fea2646970667358221220d9fd7f932caea90ad827d8f2f638873d3431a6110d6e38dae75d878bebe3a7b264736f6c63430008090033",
  "linkReferences": {},
  "deployedLinkReferences": {}
}