{
  "_format": "hh-sol-artifact-1",
  "contractName": "DestinationChainSwapForecallable",
  "sourceName": "contracts/test/gmp/DestinationChainSwapForecallable.sol",
  "abi": [
    {
      "inputs": [
        {
          "internalType": "address",
          "name": "gatewayAddress",
          "type": "address"
        },
        {
          "internalType": "address",
          "name": "swapperAddress",
          "type": "address"
        }
      ],
      "stateMutability": "nonpayable",
      "type": "constructor"
    },
    {
      "inputs": [],
      "name": "AlreadyForecalled",
      "type": "error"
    },
    {
      "inputs": [],
      "name": "NotApprovedByGateway",
      "type": "error"
    },
    {
      "inputs": [],
      "name": "TransferFailed",
      "type": "error"
    },
    {
      "inputs": [
        {
          "internalType": "uint256",
          "name": "amount",
          "type": "uint256"
        },
        {
          "internalType": "bytes",
          "name": "",
          "type": "bytes"
        }
      ],
      "name": "amountPostFee",
      "outputs": [
        {
          "internalType": "uint256",
          "name": "",
          "type": "uint256"
        }
      ],
      "stateMutability": "nonpayable",
      "type": "function"
    },
    {
      "inputs": [
        {
          "internalType": "bytes32",
          "name": "commandId",
          "type": "bytes32"
        },
        {
          "internalType": "string",
          "name": "sourceChain",
          "type": "string"
        },
        {
          "internalType": "string",
          "name": "sourceAddress",
          "type": "string"
        },
        {
          "internalType": "bytes",
          "name": "payload",
          "type": "bytes"
        }
      ],
      "name": "execute",
      "outputs": [],
      "stateMutability": "nonpayable",
      "type": "function"
    },
    {
      "inputs": [
        {
          "internalType": "bytes32",
          "name": "commandId",
          "type": "bytes32"
        },
        {
          "internalType": "string",
          "name": "sourceChain",
          "type": "string"
        },
        {
          "internalType": "string",
          "name": "sourceAddress",
          "type": "string"
        },
        {
          "internalType": "bytes",
          "name": "payload",
          "type": "bytes"
        },
        {
          "internalType": "string",
          "name": "tokenSymbol",
          "type": "string"
        },
        {
          "internalType": "uint256",
          "name": "amount",
          "type": "uint256"
        }
      ],
      "name": "executeWithToken",
      "outputs": [],
      "stateMutability": "nonpayable",
      "type": "function"
    },
    {
      "inputs": [
        {
          "internalType": "string",
          "name": "sourceChain",
          "type": "string"
        },
        {
          "internalType": "string",
          "name": "sourceAddress",
          "type": "string"
        },
        {
          "internalType": "bytes",
          "name": "payload",
          "type": "bytes"
        },
        {
          "internalType": "address",
          "name": "forecaller",
          "type": "address"
        }
      ],
      "name": "forecall",
      "outputs": [],
      "stateMutability": "nonpayable",
      "type": "function"
    },
    {
      "inputs": [
        {
          "internalType": "string",
          "name": "sourceChain",
          "type": "string"
        },
        {
          "internalType": "string",
          "name": "sourceAddress",
          "type": "string"
        },
        {
          "internalType": "bytes",
          "name": "payload",
          "type": "bytes"
        },
        {
          "internalType": "string",
          "name": "tokenSymbol",
          "type": "string"
        },
        {
          "internalType": "uint256",
          "name": "amount",
          "type": "uint256"
        },
        {
          "internalType": "address",
          "name": "forecaller",
          "type": "address"
        }
      ],
      "name": "forecallWithToken",
      "outputs": [],
      "stateMutability": "nonpayable",
      "type": "function"
    },
    {
      "inputs": [],
      "name": "gateway",
      "outputs": [
        {
          "internalType": "contract IAxelarGateway",
          "name": "",
          "type": "address"
        }
      ],
      "stateMutability": "view",
      "type": "function"
    },
    {
      "inputs": [],
      "name": "swapper",
      "outputs": [
        {
          "internalType": "contract DestinationChainTokenSwapper",
          "name": "",
          "type": "address"
        }
      ],
      "stateMutability": "view",
      "type": "function"
    }
  ],
  "bytecode": "0x608060405234801561001057600080fd5b50604051620017e9380380620017e98339810160408190526100319161007e565b600080546001600160a01b039384166001600160a01b031991821617909155600280549290931691161790556100b1565b80516001600160a01b038116811461007957600080fd5b919050565b6000806040838503121561009157600080fd5b61009a83610062565b91506100a860208401610062565b90509250929050565b61172880620000c16000396000f3fe608060405234801561001057600080fd5b506004361061007d5760003560e01c80633ca2fd8e1161005b5780633ca2fd8e146100da57806349160658146100fd578063bb288a0314610110578063e7fb058b1461012357600080fd5b8063116191b6146100825780631a98b2e0146100b25780632b3297f9146100c7575b600080fd5b600054610095906001600160a01b031681565b6040516001600160a01b0390911681526020015b60405180910390f35b6100c56100c0366004610f7e565b610136565b005b600254610095906001600160a01b031681565b6100ef6100e8366004611058565b5090919050565b6040519081526020016100a9565b6100c561010b3660046110a4565b61043f565b6100c561011e366004611170565b610662565b6100c561013136600461121e565b6107c1565b600085856040516101489291906112fb565b6040519081900381206000547f1876eed90000000000000000000000000000000000000000000000000000000083529092506001600160a01b031690631876eed9906101a8908e908e908e908e908e9089908d908d908d90600401611334565b602060405180830381600087803b1580156101c257600080fd5b505af11580156101d6573d6000803e3d6000fd5b505050506040513d601f19601f820116820180604052508101906101fa9190611393565b61021757604051631403112d60e21b815260040160405180910390fd5b6000600160008c8c8c8c8c8c8c8c8c60405160200161023e999897969594939291906113bc565b60408051601f19818403018152918152815160209283012083529082019290925201600020546001600160a01b031690508015610384576000600160008d8d8d8d8d8d8d8d8d60405160200161029c999897969594939291906113bc565b60408051808303601f1901815291815281516020928301208352908201929092528101600090812080547fffffffffffffffffffffffff0000000000000000000000000000000000000000166001600160a01b03948516179055805491516349ad89fb60e11b81529092919091169063935b13f6906103219089908990600401611424565b60206040518083038186803b15801561033957600080fd5b505afa15801561034d573d6000803e3d6000fd5b505050506040513d601f19601f820116820180604052508101906103719190611440565b905061037e8183866109fb565b50610431565b6104318b8b8080601f01602080910402602001604051908101604052809392919081815260200183838082843760009201919091525050604080516020601f8f018190048102820181019092528d815292508d91508c908190840183828082843760009201919091525050604080516020601f8c018190048102820181019092528a81528d93508c9250908b908b90819084018382808284376000920191909152508b9250610b72915050565b505050505050505050505050565b600082826040516104519291906112fb565b6040519081900381206000547f5f6970c30000000000000000000000000000000000000000000000000000000083529092506001600160a01b031690635f6970c3906104ab908b908b908b908b908b90899060040161145d565b602060405180830381600087803b1580156104c557600080fd5b505af11580156104d9573d6000803e3d6000fd5b505050506040513d601f19601f820116820180604052508101906104fd9190611393565b61051a57604051631403112d60e21b815260040160405180910390fd5b60006001600089898989898960405160200161053b9695949392919061149e565b60408051601f19818403018152918152815160209283012083529082019290925201600020546001600160a01b0316905080156105e0576000600160008a8a8a8a8a8a6040516020016105939695949392919061149e565b60405160208183030381529060405280519060200120815260200190815260200160002060006101000a8154816001600160a01b0302191690836001600160a01b03160217905550610657565b61065788888080601f01602080910402602001604051908101604052809392919081815260200183838082843760009201919091525050604080516020601f8c018190048102820181019092528a815292508a9150899081908401838280828437600092019190915250899250889150610edd9050565b505050505050505050565b60006001600160a01b03166001600089898989898960405160200161068c9695949392919061149e565b60408051601f19818403018152918152815160209283012083529082019290925201600020546001600160a01b0316146106d95760405163035b7d5560e41b815260040160405180910390fd5b80600160008989898989896040516020016106f99695949392919061149e565b60405160208183030381529060405280519060200120815260200190815260200160002060006101000a8154816001600160a01b0302191690836001600160a01b031602179055506107b887878080601f01602080910402602001604051908101604052809392919081815260200183838082843760009201919091525050604080516020601f8b018190048102820181019092528981529250899150889081908401838280828437600092019190915250889250879150610edd9050565b50505050505050565b600080546040516349ad89fb60e11b81526001600160a01b039091169063935b13f6906107f49088908890600401611424565b60206040518083038186803b15801561080c57600080fd5b505afa158015610820573d6000803e3d6000fd5b505050506040513d601f19601f820116820180604052508101906108449190611440565b905082610852823383610ee3565b60006001600160a01b0316600160008e8e8e8e8e8e8e8e8e604051602001610882999897969594939291906113bc565b60408051601f19818403018152918152815160209283012083529082019290925201600020546001600160a01b0316146108cf5760405163035b7d5560e41b815260040160405180910390fd5b82600160008e8e8e8e8e8e8e8e8e6040516020016108f5999897969594939291906113bc565b60405160208183030381529060405280519060200120815260200190815260200160002060006101000a8154816001600160a01b0302191690836001600160a01b031602179055506104318c8c8080601f016020809104026020016040519081016040528093929190818152602001838380828437600081840152601f19601f820116905080830192505050505050508b8b8080601f01602080910402602001604051908101604052809392919081815260200183838082843760009201919091525050604080516020601f8d018190048102820181019092528b81528e93508d9250908c908c9081908401838280828437600092019190915250899250610b72915050565b6040516001600160a01b0383811660248301526044820183905260009182918616907fa9059cbb00000000000000000000000000000000000000000000000000000000906064015b60408051601f198184030181529181526020820180517bffffffffffffffffffffffffffffffffffffffffffffffffffffffff167fffffffff00000000000000000000000000000000000000000000000000000000909416939093179092529051610aae9190611513565b6000604051808303816000865af19150503d8060008114610aeb576040519150601f19603f3d011682016040523d82523d6000602084013e610af0565b606091505b50915091506000828015610b1c575081511580610b1c575081806020019051810190610b1c9190611393565b9050801580610b3357506001600160a01b0386163b155b15610b6a576040517f90b8ec1800000000000000000000000000000000000000000000000000000000815260040160405180910390fd5b505050505050565b600080610b81858701876115eb565b600080546040516349ad89fb60e11b8152939550919350916001600160a01b039091169063935b13f690610bb990889060040161167b565b60206040518083038186803b158015610bd157600080fd5b505afa158015610be5573d6000803e3d6000fd5b505050506040513d601f19601f82011682018060405250810190610c099190611440565b600080546040516349ad89fb60e11b815292935090916001600160a01b039091169063935b13f690610c3f90879060040161167b565b60206040518083038186803b158015610c5757600080fd5b505afa158015610c6b573d6000803e3d6000fd5b505050506040513d601f19601f82011682018060405250810190610c8f9190611440565b60025460405163095ea7b360e01b81526001600160a01b0391821660048201526024810188905291925083169063095ea7b390604401602060405180830381600087803b158015610cdf57600080fd5b505af1158015610cf3573d6000803e3d6000fd5b505050506040513d601f19601f82011682018060405250810190610d179190611393565b506002546040517f6e81221c0000000000000000000000000000000000000000000000000000000081526001600160a01b0384811660048301528381166024830152604482018890523060648301526000921690636e81221c90608401602060405180830381600087803b158015610d8e57600080fd5b505af1158015610da2573d6000803e3d6000fd5b505050506040513d601f19601f82011682018060405250810190610dc6919061168e565b60005460405163095ea7b360e01b81526001600160a01b0391821660048201526024810183905291925083169063095ea7b390604401602060405180830381600087803b158015610e1657600080fd5b505af1158015610e2a573d6000803e3d6000fd5b505050506040513d601f19601f82011682018060405250810190610e4e9190611393565b506000546040517f26ef699d0000000000000000000000000000000000000000000000000000000081526001600160a01b03909116906326ef699d90610e9e908e9088908a9087906004016116a7565b600060405180830381600087803b158015610eb857600080fd5b505af1158015610ecc573d6000803e3d6000fd5b505050505050505050505050505050565b50505050565b6040516001600160a01b0383811660248301523060448301526064820183905260009182918616907f23b872dd0000000000000000000000000000000000000000000000000000000090608401610a43565b60008083601f840112610f4757600080fd5b50813567ffffffffffffffff811115610f5f57600080fd5b602083019150836020828501011115610f7757600080fd5b9250929050565b60008060008060008060008060008060c08b8d031215610f9d57600080fd5b8a35995060208b013567ffffffffffffffff80821115610fbc57600080fd5b610fc88e838f01610f35565b909b50995060408d0135915080821115610fe157600080fd5b610fed8e838f01610f35565b909950975060608d013591508082111561100657600080fd5b6110128e838f01610f35565b909750955060808d013591508082111561102b57600080fd5b506110388d828e01610f35565b9150809450508092505060a08b013590509295989b9194979a5092959850565b60008060006040848603121561106d57600080fd5b83359250602084013567ffffffffffffffff81111561108b57600080fd5b61109786828701610f35565b9497909650939450505050565b60008060008060008060006080888a0312156110bf57600080fd5b87359650602088013567ffffffffffffffff808211156110de57600080fd5b6110ea8b838c01610f35565b909850965060408a013591508082111561110357600080fd5b61110f8b838c01610f35565b909650945060608a013591508082111561112857600080fd5b506111358a828b01610f35565b989b979a50959850939692959293505050565b6001600160a01b038116811461115d57600080fd5b50565b803561116b81611148565b919050565b60008060008060008060006080888a03121561118b57600080fd5b873567ffffffffffffffff808211156111a357600080fd5b6111af8b838c01610f35565b909950975060208a01359150808211156111c857600080fd5b6111d48b838c01610f35565b909750955060408a01359150808211156111ed57600080fd5b506111fa8a828b01610f35565b909450925050606088013561120e81611148565b8091505092959891949750929550565b60008060008060008060008060008060c08b8d03121561123d57600080fd5b8a3567ffffffffffffffff8082111561125557600080fd5b6112618e838f01610f35565b909c509a5060208d013591508082111561127a57600080fd5b6112868e838f01610f35565b909a50985060408d013591508082111561129f57600080fd5b6112ab8e838f01610f35565b909850965060608d01359150808211156112c457600080fd5b506112d18d828e01610f35565b90955093505060808b013591506112ea60a08c01611160565b90509295989b9194979a5092959850565b8183823760009101908152919050565b81835281816020850137506000828201602090810191909152601f909101601f19169091010190565b89815260c06020820152600061134e60c083018a8c61130b565b828103604084015261136181898b61130b565b9050866060840152828103608084015261137c81868861130b565b9150508260a08301529a9950505050505050505050565b6000602082840312156113a557600080fd5b815180151581146113b557600080fd5b9392505050565b60a0815260006113d060a083018b8d61130b565b82810360208401526113e3818a8c61130b565b905082810360408401526113f881888a61130b565b9050828103606084015261140d81868861130b565b9150508260808301529a9950505050505050505050565b60208152600061143860208301848661130b565b949350505050565b60006020828403121561145257600080fd5b81516113b581611148565b86815260806020820152600061147760808301878961130b565b828103604084015261148a81868861130b565b915050826060830152979650505050505050565b6060815260006114b260608301888a61130b565b82810360208401526114c581878961130b565b905082810360408401526114da81858761130b565b9998505050505050505050565b60005b838110156115025781810151838201526020016114ea565b83811115610edd5750506000910152565b600082516115258184602087016114e7565b9190910192915050565b7f4e487b7100000000000000000000000000000000000000000000000000000000600052604160045260246000fd5b600082601f83011261156f57600080fd5b813567ffffffffffffffff8082111561158a5761158a61152f565b604051601f8301601f19908116603f011681019082821181831017156115b2576115b261152f565b816040528381528660208588010111156115cb57600080fd5b836020870160208301376000602085830101528094505050505092915050565b600080604083850312156115fe57600080fd5b823567ffffffffffffffff8082111561161657600080fd5b6116228683870161155e565b9350602085013591508082111561163857600080fd5b506116458582860161155e565b9150509250929050565b600081518084526116678160208601602086016114e7565b601f01601f19169290920160200192915050565b6020815260006113b5602083018461164f565b6000602082840312156116a057600080fd5b5051919050565b6080815260006116ba608083018761164f565b82810360208401526116cc818761164f565b905082810360408401526116e0818661164f565b9150508260608301529594505050505056fea26469706673582212204de488bf3256c049b64f9e5f5083ae3b9da6f97386c7593810c82dd9f0b69a9c64736f6c63430008090033",
  "linkReferences": {},
  "deployedLinkReferences": {}
}