{
  "_format": "hh-sol-artifact-1",
  "contractName": "DepositServiceBase",
  "sourceName": "contracts/deposit-service/DepositServiceBase.sol",
  "abi": [
    {
      "inputs": [
        {
          "internalType": "address",
          "name": "gateway_",
          "type": "address"
        },
        {
          "internalType": "string",
          "name": "wrappedSymbol_",
          "type": "string"
        }
      ],
      "stateMutability": "nonpayable",
      "type": "constructor"
    },
    {
      "inputs": [],
      "name": "InvalidAddress",
      "type": "error"
    },
    {
      "inputs": [],
      "name": "InvalidStringLength",
      "type": "error"
    },
    {
      "inputs": [],
      "name": "InvalidSymbol",
      "type": "error"
    },
    {
      "inputs": [],
      "name": "NativeTransferFailed",
      "type": "error"
    },
    {
      "inputs": [],
      "name": "NothingDeposited",
      "type": "error"
    },
    {
      "inputs": [],
      "name": "TokenApproveFailed",
      "type": "error"
    },
    {
      "inputs": [],
      "name": "TokenTransferFailed",
      "type": "error"
    },
    {
      "inputs": [],
      "name": "UnwrapFailed",
      "type": "error"
    },
    {
      "inputs": [],
      "name": "WrapFailed",
      "type": "error"
    },
    {
      "inputs": [],
      "name": "gateway",
      "outputs": [
        {
          "internalType": "address",
          "name": "",
          "type": "address"
        }
      ],
      "stateMutability": "view",
      "type": "function"
    },
    {
      "inputs": [],
      "name": "wrappedSymbol",
      "outputs": [
        {
          "internalType": "string",
          "name": "",
          "type": "string"
        }
      ],
      "stateMutability": "view",
      "type": "function"
    },
    {
      "inputs": [],
      "name": "wrappedToken",
      "outputs": [
        {
          "internalType": "address",
          "name": "",
          "type": "address"
        }
      ],
      "stateMutability": "view",
      "type": "function"
    }
  ],
  "bytecode": "0x60c060405234801561001057600080fd5b506040516106b53803806106b583398101604081905261002f916101f8565b6001600160a01b0382166100565760405163e6c4247b60e01b815260040160405180910390fd5b6001600160a01b03821660808190526040516349ad89fb60e11b81526000919063935b13f69061008a9085906004016102b8565b60206040518083038186803b1580156100a257600080fd5b505afa1580156100b6573d6000803e3d6000fd5b505050506040513d601f19601f820116820180604052508101906100da91906102eb565b6001600160a01b031614156101025760405163010466f160e21b815260040160405180910390fd5b6101158161012060201b6101d31760201c565b60a052506103349050565b8051600090829015806101345750601f8151115b1561015257604051638dc6ac0160e01b815260040160405180910390fd5b600061015d8261030d565b82516040805160ff909216929092176020820181905292500160405160208183030381529060405261018e9061030d565b949350505050565b80516001600160a01b03811681146101ad57600080fd5b919050565b634e487b7160e01b600052604160045260246000fd5b60005b838110156101e35781810151838201526020016101cb565b838111156101f2576000848401525b50505050565b6000806040838503121561020b57600080fd5b61021483610196565b60208401519092506001600160401b038082111561023157600080fd5b818501915085601f83011261024557600080fd5b815181811115610257576102576101b2565b604051601f8201601f19908116603f0116810190838211818310171561027f5761027f6101b2565b8160405282815288602084870101111561029857600080fd5b6102a98360208301602088016101c8565b80955050505050509250929050565b60208152600082518060208401526102d78160408501602087016101c8565b601f01601f19169190910160400192915050565b6000602082840312156102fd57600080fd5b61030682610196565b9392505050565b8051602080830151919081101561032e576000198160200360031b1b821691505b50919050565b60805160a0516103516103646000396000818160ae0152610135015260008181604b015260ec01526103516000f3fe608060405234801561001057600080fd5b50600436106100415760003560e01c8063116191b614610046578063996c6cc314610097578063fee8cf4e1461009f575b600080fd5b61006d7f000000000000000000000000000000000000000000000000000000000000000081565b60405173ffffffffffffffffffffffffffffffffffffffff90911681526020015b60405180910390f35b61006d6100e8565b6100db604080518082019091527f000000000000000000000000000000000000000000000000000000000000000060ff81168252602082015290565b60405161008e9190610262565b60007f000000000000000000000000000000000000000000000000000000000000000073ffffffffffffffffffffffffffffffffffffffff1663935b13f6610162604080518082019091527f000000000000000000000000000000000000000000000000000000000000000060ff81168252602082015290565b6040518263ffffffff1660e01b815260040161017e9190610262565b60206040518083038186803b15801561019657600080fd5b505afa1580156101aa573d6000803e3d6000fd5b505050506040513d601f19601f820116820180604052508101906101ce91906102b7565b905090565b8051600090829015806101e75750601f8151115b1561021e576040517f8dc6ac0100000000000000000000000000000000000000000000000000000000815260040160405180910390fd5b6000610229826102f4565b82516040805160ff909216929092176020820181905292500160405160208183030381529060405261025a906102f4565b949350505050565b600060208083528351808285015260005b8181101561028f57858101830151858201604001528201610273565b818111156102a1576000604083870101525b50601f01601f1916929092016040019392505050565b6000602082840312156102c957600080fd5b815173ffffffffffffffffffffffffffffffffffffffff811681146102ed57600080fd5b9392505050565b80516020808301519190811015610315576000198160200360031b1b821691505b5091905056fea26469706673582212202fdbd9e5793a10bb8ea7fb11a375a965efab1cf39cccd0cb9f6b14df6bbb92cc64736f6c63430008090033",
  "linkReferences": {},
  "deployedLinkReferences": {}
}