{
  "_format": "hh-sol-artifact-1",
  "contractName": "DestinationChainTokenSwapper",
  "sourceName": "contracts/test/gmp/DestinationChainTokenSwapper.sol",
  "abi": [
    {
      "inputs": [
        {
          "internalType": "address",
          "name": "tokenA_",
          "type": "address"
        },
        {
          "internalType": "address",
          "name": "tokenB_",
          "type": "address"
        }
      ],
      "stateMutability": "nonpayable",
      "type": "constructor"
    },
    {
      "inputs": [],
      "name": "WrongTokenPair",
      "type": "error"
    },
    {
      "inputs": [
        {
          "internalType": "address",
          "name": "tokenAddress",
          "type": "address"
        },
        {
          "internalType": "address",
          "name": "toTokenAddress",
          "type": "address"
        },
        {
          "internalType": "uint256",
          "name": "amount",
          "type": "uint256"
        },
        {
          "internalType": "address",
          "name": "recipient",
          "type": "address"
        }
      ],
      "name": "swap",
      "outputs": [
        {
          "internalType": "uint256",
          "name": "convertedAmount",
          "type": "uint256"
        }
      ],
      "stateMutability": "nonpayable",
      "type": "function"
    }
  ],
  "bytecode": "0x608060405234801561001057600080fd5b5060405161041e38038061041e83398101604081905261002f9161007c565b600080546001600160a01b039384166001600160a01b031991821617909155600180549290931691161790556100af565b80516001600160a01b038116811461007757600080fd5b919050565b6000806040838503121561008f57600080fd5b61009883610060565b91506100a660208401610060565b90509250929050565b610360806100be6000396000f3fe608060405234801561001057600080fd5b506004361061002b5760003560e01c80636e81221c14610030575b600080fd5b61004361003e366004610265565b610055565b60405190815260200160405180910390f35b6040517f23b872dd000000000000000000000000000000000000000000000000000000008152336004820152306024820152604481018390526000906001600160a01b038616906323b872dd90606401602060405180830381600087803b1580156100bf57600080fd5b505af11580156100d3573d6000803e3d6000fd5b505050506040513d601f19601f820116820180604052508101906100f791906102b2565b506000546001600160a01b038681169116141561014e576001546001600160a01b0385811691161461013c576040516305d017bb60e21b815260040160405180910390fd5b6101478360026102db565b90506101a5565b6001546001600160a01b03868116911614158061017957506000546001600160a01b03858116911614155b15610197576040516305d017bb60e21b815260040160405180910390fd5b6101a2600284610308565b90505b6040517fa9059cbb0000000000000000000000000000000000000000000000000000000081526001600160a01b0383811660048301526024820183905285169063a9059cbb90604401602060405180830381600087803b15801561020857600080fd5b505af115801561021c573d6000803e3d6000fd5b505050506040513d601f19601f8201168201806040525081019061024091906102b2565b50949350505050565b80356001600160a01b038116811461026057600080fd5b919050565b6000806000806080858703121561027b57600080fd5b61028485610249565b935061029260208601610249565b9250604085013591506102a760608601610249565b905092959194509250565b6000602082840312156102c457600080fd5b815180151581146102d457600080fd5b9392505050565b600081600019048311821515161561030357634e487b7160e01b600052601160045260246000fd5b500290565b60008261032557634e487b7160e01b600052601260045260246000fd5b50049056fea26469706673582212203e5f44b4257567767d9ce559b96f4dbbcbe88b88ed63feaa2b0bdf324d81abbe64736f6c63430008090033",
  "linkReferences": {},
  "deployedLinkReferences": {}
}