{
    "_format": "hh-sol-artifact-1",
    "contractName": "DepositReceiver",
    "sourceName": "contracts/deposit-service/DepositReceiver.sol",
    "abi": [
        {
            "inputs": [],
            "stateMutability": "nonpayable",
            "type": "constructor"
        },
        {
            "inputs": [],
            "name": "NotContract",
            "type": "error"
        },
        {
            "inputs": [],
            "name": "NotOwner",
            "type": "error"
        },
        {
            "inputs": [
                {
                    "internalType": "address",
                    "name": "etherDestination",
                    "type": "address"
                }
            ],
            "name": "destroy",
            "outputs": [],
            "stateMutability": "nonpayable",
            "type": "function"
        },
        {
            "inputs": [
                {
                    "internalType": "address",
                    "name": "callee",
                    "type": "address"
                },
                {
                    "internalType": "uint256",
                    "name": "value",
                    "type": "uint256"
                },
                {
                    "internalType": "bytes",
                    "name": "data",
                    "type": "bytes"
                }
            ],
            "name": "execute",
            "outputs": [
                {
                    "internalType": "bool",
                    "name": "success",
                    "type": "bool"
                },
                {
                    "internalType": "bytes",
                    "name": "returnData",
                    "type": "bytes"
                }
            ],
            "stateMutability": "nonpayable",
            "type": "function"
        },
        {
            "stateMutability": "payable",
            "type": "receive"
        }
    ],
    "bytecode": "0x608060405234801561001057600080fd5b50600080546001600160a01b0319163317905561030d806100326000396000f3fe60806040526004361061002c5760003560e01c8062f55d9d14610038578063b61d27f61461005a57600080fd5b3661003357005b600080fd5b34801561004457600080fd5b506100586100533660046101bf565b610091565b005b34801561006657600080fd5b5061007a6100753660046101e1565b6100c8565b604051610088929190610268565b60405180910390f35b6000546001600160a01b031633146100bc576040516330cd747160e01b815260040160405180910390fd5b806001600160a01b0316ff5b600080546060906001600160a01b031633146100f7576040516330cd747160e01b815260040160405180910390fd5b6001600160a01b0386163b610138576040517f6f7c43f100000000000000000000000000000000000000000000000000000000815260040160405180910390fd5b856001600160a01b03168585856040516101539291906102c7565b60006040518083038185875af1925050503d8060008114610190576040519150601f19603f3d011682016040523d82523d6000602084013e610195565b606091505b509097909650945050505050565b80356001600160a01b03811681146101ba57600080fd5b919050565b6000602082840312156101d157600080fd5b6101da826101a3565b9392505050565b600080600080606085870312156101f757600080fd5b610200856101a3565b935060208501359250604085013567ffffffffffffffff8082111561022457600080fd5b818701915087601f83011261023857600080fd5b81358181111561024757600080fd5b88602082850101111561025957600080fd5b95989497505060200194505050565b821515815260006020604081840152835180604085015260005b8181101561029e57858101830151858201606001528201610282565b818111156102b0576000606083870101525b50601f01601f191692909201606001949350505050565b818382376000910190815291905056fea26469706673582212206b628cc10dd6a09f22fb6350e806531b23ddd0a5aa441b7c7dba0364fd6f7d4c64736f6c63430008090033",
    "linkReferences": {},
    "deployedLinkReferences": {}
}